:100000000C942A000C9436120C9469120C949C12D5
:100010000C9447000C9447000C94FE080C94470085
:100020000C9447000C9447000C94F70A0C94A80A0F
:100030000C94ED0C0C947F060C94A1060C94BC0659
:100040000C946A190C9447000C9447000C944700D8
:100050000C94470011241FBECFE5D8E0DEBFCDBF12
:1000600012E0A0E6B0E0E0EBF8E502C005900D92EA
:10007000AC3AB107D9F712E0ACEAB2E001C01D9288
:10008000A63EB107E1F70E9468220C94562C0C940E
:100090000000EF92FF920F931F937B018C0120E0F1
:1000A00030E040E05FE40E94490388238CF0C801FF
:1000B000B70120E030E040E05FE40E94C1010E940F
:1000C000A9039B01AC01205030404040504806C07D
:1000D000C801B7010E94A9039B01AC01B901CA0183
:1000E0001F910F91FF90EF900895A0E0B0E0EBE733
:1000F000F0E00C941F2CDC012B01FA019C91923052
:1001000008F439C1EB018881823008F433C194309E
:1001100069F4843009F02FC111969C91119789815F
:10012000981709F428C1A1E8B2E025C1843009F488
:1001300021C18230A9F4923009F01DC19A01AD01AC
:1001400088E0EA010990AE01E90109929E0181501F
:10015000C1F7E201898111969C918923818308C1AD
:10016000923009F407C112962D903C901397EB0141
:100170008A819B811496AD90BD90CD90DC901797AD
:10018000EC80FD800E811F819101281B390BB90184
:1001900037FF04C066277727621B730B6032710537
:1001A0000CF061C0121613066CF537014801062EDB
:1001B00004C096948794779467940A94D2F721E0C8
:1001C00030E040E050E004C0220F331F441F551FB1
:1001D0006A95D2F721503040404050402E213F21B7
:1001E00040235123211531054105510521F021E01E
:1001F00030E040E050E079018A01E628F72808293C
:1002000019293CC0232BD1F1260E371E350146019A
:10021000062E04C096948794779467940A94D2F734
:1002200021E030E040E050E004C0220F331F441FC3
:10023000551F6A95D2F721503040404050402A2146
:100240003B214C215D21211531054105510521F04E
:1002500021E030E040E050E059016A01A628B728CB
:10026000C828D9280BC0821593052CF01C01AA249C
:10027000BB24650103C0EE24FF24870111969C91E5
:10028000D20111968C91981709F445C0992339F041
:10029000A80197012A193B094C095D0906C0A6016E
:1002A00095012E193F09400B510B57FD08C01182D3
:1002B0003382228224833583468357831DC081E0A5
:1002C00081833382228288279927DC01821B930B4A
:1002D000A40BB50B84839583A683B7830DC0220F2F
:1002E000331F441F551F24833583468357838281E0
:1002F000938101979383828324813581468157813D
:10030000DA01C9010197A109B1098F5F9F4FAF4F72
:10031000BF4328F30BC0918333822282EA0CFB1C7B
:100320000C1D1D1DE482F5820683178383E0808304
:10033000248135814681578157FF1AC0C901AA27F8
:1003400097FDA095BA2F81709070A070B0705695EF
:10035000479537952795822B932BA42BB52B848318
:100360009583A683B7838281938101969383828349
:10037000DF0101C0D201CD01CDB7DEB7E2E10C94BF
:100380003B2CA0E2B0E0E7ECF1E00C942B2C69836D
:100390007A838B839C832D833E834F835887E9E048
:1003A000EE2EF12CEC0EFD1ECE010196B7010E943F
:1003B000D2048E010F5E1F4FCE010596B8010E9438
:1003C000D2048A8991E089278A8BC701B801AE01DE
:1003D000475E5F4F0E9475000E94FD03A096E6E015
:1003E0000C94472CA0E2B0E0E8EFF1E00C942B2C49
:1003F00069837A838B839C832D833E834F835887C5
:10040000F9E0EF2EF12CEC0EFD1ECE010196B701A6
:100410000E94D2048E010F5E1F4FCE010596B801D7
:100420000E94D204C701B801AE01475E5F4F0E942F
:1004300075000E94FD03A096E6E00C94472CA0E214
:10044000B0E0E5E2F2E00C941F2C69837A838B83A1
:100450009C832D833E834F835887CE010196BE0136
:10046000675F7F4F0E94D204CE010596BE016F5E8A
:100470007F4F0E94D2049985923088F0898982301A
:10048000C8F0943019F4823051F404C0843029F457
:10049000923081F481E892E0C6C0923049F420E0C5
:1004A0009A858A89981321E02A87CE010996BBC0D4
:1004B000823049F420E09A858A89981321E02A8BBA
:1004C000CE014196B0C02D843E844F8458886D88FB
:1004D0007E888F88988CEE24FF248701AA24BB2471
:1004E000650140E050E060E070E0E0E0F0E0C10174
:1004F00081709070892BE9F0E60CF71C081D191D1E
:100500009A01AB012A0D3B1D4C1D5D1D80E090E062
:10051000A0E0B0E0E614F7040805190520F481E036
:1005200090E0A0E0B0E0BA01A901480F591F6A1F8E
:100530007B1FAA0CBB1CCC1CDD1C97FE08C081E0F5
:1005400090E0A0E0B0E0A82AB92ACA2ADB2A3196B6
:10055000E032F10549F0660C771C881C991C569412
:10056000479437942794C3CFFA85EA892B893C892D
:100570008B859C85280F391F2E5F3F4F17C0CA01FE
:1005800081709070892B61F016950795F794E79428
:1005900080E090E0A0E0B0E8E82AF92A0A2B1B2BC3
:1005A00076956795579547952F5F3F4F77FDE7CF36
:1005B0000CC0440F551F661F771F17FD4160EE0CDE
:1005C000FF1C001F111F21503040403090E05907A0
:1005D00090E0690790E4790760F32B8F3C8FDB0193
:1005E000CA018F779070A070B07080349105A1051A
:1005F000B10561F447FD0AC0E114F10401051105DC
:1006000029F0405C5F4F6F4F7F4F40781A8EFE1786
:1006100011F081E08A8F4D8F5E8F6F8F78A383E01A
:10062000898FCE0149960E94FD03A096E2E10C94C9
:100630003B2CA8E1B0E0EFE1F3E00C942B2C6983B4
:100640007A838B839C832D833E834F83588789E0F5
:10065000E82EF12CEC0EFD1ECE010196B7010E9492
:10066000D2048E010F5E1F4FCE010596B8010E9485
:10067000D2048985823040F08989823028F0C70110
:10068000B8010E944A0501C08FEF6896E6E00C941D
:10069000472CA8E1B0E0EFE4F3E00C942B2C698345
:1006A0007A838B839C832D833E834F83588789E095
:1006B000E82EF12CEC0EFD1ECE010196B7010E9432
:1006C000D2048E010F5E1F4FCE010596B8010E9425
:1006D000D2048985823040F08989823028F0C701B0
:1006E000B8010E944A0501C08FEF6896E6E00C94BD
:1006F000472CA8E1B0E0EFE7F3E00C942B2C6983E2
:100700007A838B839C832D833E834F83588789E034
:10071000E82EF12CEC0EFD1ECE010196B7010E94D1
:10072000D2048E010F5E1F4FCE010596B8010E94C4
:10073000D2048985823040F08989823028F0C7014F
:10074000B8010E944A0501C081E06896E6E00C9479
:10075000472CACE0B0E0EFEAF3E00C942F2C698377
:100760007A838B839C83CE010196BE016B5F7F4FA2
:100770000E94D2048D81823061F1823050F1843048
:1007800021F48E81882351F12EC02F81388537FDC9
:1007900020C06E812F3131051CF06623F9F023C093
:1007A0008EE190E0821B930B29853A854B855C8511
:1007B00004C056954795379527958A95D2F76623B5
:1007C000B1F050954095309521953F4F4F4F5F4F79
:1007D0000EC020E030E040E050E009C02FEF3FEFD6
:1007E0004FEF5FE704C020E030E040E050E8B9019F
:1007F000CA012C96E2E00C944B2CDF92EF92FF9210
:100800000F931F93FC01E480F58006811781D1804E
:100810008081823048F480E090E0A0E1B0E0E82AF6
:10082000F92A0A2B1B2BA5C0843009F49FC0823003
:1008300021F4EE24FF24870105C0E114F104010531
:10084000110519F4E0E0F0E096C0628173819FEF3A
:10085000623879070CF05BC022E83FEF261B370BAC
:100860002A3131052CF020E030E040E050E02AC091
:10087000B801A701022E04C0769567955795479554
:100880000A94D2F781E090E0A0E0B0E004C0880FC5
:10089000991FAA1FBB1F2A95D2F70197A109B10979
:1008A0008E219F21A023B1230097A105B10521F03E
:1008B00081E090E0A0E0B0E09A01AB01282B392B59
:1008C0004A2B5B2BDA01C9018F779070A070B07052
:1008D00080349105A105B10539F427FF09C0205CDA
:1008E0003F4F4F4F5F4F04C0215C3F4F4F4F5F4F13
:1008F000E0E0F0E02030A0E03A07A0E04A07A0E402
:100900005A0710F0E1E0F0E079018A0127C0603871
:10091000710564F5FB01E158FF4FD801C7018F77DE
:100920009070A070B07080349105A105B10539F4C4
:10093000E7FE0DC080E490E0A0E0B0E004C08FE3EB
:1009400090E0A0E0B0E0E80EF91E0A1F1B1F17FFA1
:1009500005C016950795F794E794319687E01695AC
:100960000795F794E7948A95D1F705C0EE24FF2404
:100970008701EFEFF0E06E2F679566276795902F60
:100980009F77D794DD24D7948E2F8695492F462BB9
:10099000582F5D29B701CA011F910F91FF90EF9069
:1009A000DF900895FC01DB01408151812281622F9B
:1009B0006F7770E0221F2227221F9381892F880FD3
:1009C000822B282F30E0991F9927991F11969C930D
:1009D000119721153105A9F54115510561057105DD
:1009E00011F482E037C082E89FEF13969C938E93B8
:1009F00012979A01AB0167E0220F331F441F551F66
:100A00006A95D1F783E08C930DC0220F331F441FEA
:100A1000551F12968D919C911397019713969C9355
:100A20008E931297203080E0380780E0480780E4FA
:100A3000580758F314962D933D934D935C93179755
:100A400008952F3F310579F4411551056105710570
:100A500019F484E08C93089564FF03C081E08C93C3
:100A600012C01C9210C02F57304013963C932E9307
:100A7000129783E08C9387E0440F551F661F771F02
:100A80008A95D1F7706414964D935D936D937C9322
:100A9000179708951F93DC01FB019C91923008F495
:100AA00047C08081823008F443C0943051F41196DD
:100AB0001C91843099F58181682F70E0611B710968
:100AC0003FC0843021F0923031F48230B9F181811D
:100AD000882389F12DC011961C9111978230F1F075
:100AE00081811817D9F412962D913C911397828128
:100AF00093818217930794F028173907BCF0149656
:100B00008D919D910D90BC91A02D248135814681C0
:100B10005781281739074A075B0718F4112341F05A
:100B20000AC082179307A407B50740F4112319F0F0
:100B300061E070E005C06FEF7FEF02C060E070E041
:100B4000CB011F910895DF93CF9300D0CDB7DEB7CF
:100B5000A0E4B0E0E0E4F0E080818F778C931A822B
:100B6000198283E390E09A838983E9E2F0E0898146
:100B70008083E0E4F0E089819A81892F992780833E
:100B8000A0E4B0E0E0E4F0E0808180688C93A0E431
:100B9000B0E0E0E4F0E080818F7B8C93A0E4B0E0F3
:100BA000E0E4F0E080818F7E8C93A0E4B0E0E0E4AC
:100BB000F0E080818F7D8C93A0E4B0E0E0E4F0E091
:100BC0008081877F8C93A0E4B0E0E0E4F0E0808156
:100BD00082608C93A0E4B0E0E0E4F0E08081846087
:100BE0008C93AAE2B0E0EAE2F0E080818B7F8C9304
:100BF000AAE2B0E0EAE2F0E0808188608C93AAE2A9
:100C0000B0E0EAE2F0E0808180618C930F900F9079
:100C1000CF91DF910895DF93CF930F92CDB7DEB7D9
:100C20008983EBE2F0E08081882F90E08072907001
:100C30000097B9F3ECE2F0E089818083ABE2B0E0A9
:100C4000EBE2F0E0808180648C930F90CF91DF9194
:100C50000895DF93CF9300D0CDB7DEB79A83898311
:100C6000EBE2F0E080818823DCF7ECE2F0E08081C9
:100C7000E981FA8180830F900F90CF91DF910895E1
:100C8000DF93CF9300D00F92CDB7DEB789837B83FC
:100C90006A83AAE2B0E0EAE2F0E0808180628C93AD
:100CA000AAE2B0E0EAE2F0E0808180648C9389817E
:100CB0008093AE028A819B819093AD028093AC02B7
:100CC0000F900F900F90CF91DF910895DF93CF9306
:100CD00000D0CDB7DEB79A838983AAE2B0E0EAE21A
:100CE000F0E0808180688C9389819A819093B00232
:100CF0008093AF020F900F90CF91DF9108951F92D4
:100D00000F920FB60F9211248F93AF93BF93EF936F
:100D1000FF93DF93CF93CDB7DEB7E091AF02F091B1
:100D2000B002ACE2B0E08C918083CF91DF91FF9173
:100D3000EF91BF91AF918F910F900FBE0F901F90C9
:100D400018951F920F920FB60F9211248F93EF9365
:100D5000FF93DF93CF93CDB7DEB7ECE2F0E0809165
:100D6000AE028083CF91DF91FF91EF918F910F9031
:100D70000FBE0F901F9018951F920F920FB60F92F3
:100D800011242F933F934F935F936F937F938F9390
:100D90009F93AF93BF93EF93FF93DF93CF93CDB721
:100DA000DEB7E091AC02F091AD020995CF91DF91F1
:100DB000FF91EF91BF91AF919F918F917F916F9133
:100DC0005F914F913F912F910F900FBE0F901F9009
:100DD0001895DF93CF93CDB7DEB7AFE4B0E0EFE483
:100DE000F0E080818E7F8C93AFE4B0E0EFE4F0E040
:100DF000808182608C93AEE4B0E0EEE4F0E080812C
:100E000088608C93AEE4B0E0EEE4F0E08081806135
:100E10008C93AFE4B0E0EFE4F0E080818F7B8C93C3
:100E2000AFE4B0E0EFE4F0E0808180688C93AFE461
:100E3000B0E0EFE4F0E080818F7E8C93AFE4B0E02F
:100E4000EFE4F0E080818F7D8C93AEE4B0E0EEE4DF
:100E5000F0E08081887F8C93AEE4B0E0EEE4F0E0D7
:100E600080818E7F8C93AEE4B0E0EEE4F0E0808190
:100E700082608C93AEE4B0E0EEE4F0E080818B7FA2
:100E80008C93CF91DF910895DF93CF93CDB7DEB7E9
:100E9000AFE4B0E0EFE4F0E080818E7F8C93AFE4CC
:100EA000B0E0EFE4F0E080818D7F8C93AEE4B0E0C1
:100EB000EEE4F0E08081877F8C93AEE4B0E0EEE476
:100EC000F0E080818F7E8C93AEE4B0E0EEE4F0E061
:100ED0008081887F8C93AEE4B0E0EEE4F0E0808126
:100EE0008E7F8C93AEE4B0E0EEE4F0E0808182602F
:100EF0008C93AEE4B0E0EEE4F0E080818B7F8C93E5
:100F000081E00E942308A9E5B0E0E9E5F0E08081F6
:100F100080628C93CF91DF910895DF93CF9300D0BF
:100F2000CDB7DEB79A83898389819A819093B20283
:100F30008093B1020F900F90CF91DF910895DF93CE
:100F4000CF9300D0CDB7DEB79A83898389819A8108
:100F50009093B4028093B3020F900F90CF91DF91E2
:100F60000895DF93CF9300D0CDB7DEB79A838983FE
:100F70000F900F90CF91DF910895DF93CF9300D022
:100F8000CDB7DEB79A838983EAE4F0E089819A815C
:100F90009183808389819A819093B8028093B7026C
:100FA0000F900F90CF91DF910895DF93CF9300D0F2
:100FB000CDB7DEB79A838983E8E4F0E089819A812E
:100FC0009183808389819A819093BA028093B90238
:100FD0000F900F90CF91DF910895DF93CF9300D0C2
:100FE00000D0CDB7DEB79A8389837C836B838981F8
:100FF0009A810E94BD07E6E4F0E08B819C81918399
:1010000080830F900F900F900F90CF91DF910895F4
:10101000DF93CF9300D000D0CDB7DEB79A8389831A
:101020007C836B8389819A810E94D507E6E4F0E096
:101030008B819C81918380830F900F900F900F90F4
:10104000CF91DF910895DF93CF9300D00F92CDB76A
:10105000DEB789838981282F30E03B832A838A8108
:101060009B81009731F02A813B812130310549F085
:101070000FC0AEE4B0E0EEE4F0E080818F7B8C93B3
:1010800007C0AEE4B0E0EEE4F0E0808180648C93D1
:101090000F900F900F90CF91DF910895EF92FF92F4
:1010A0000F931F93DF93CF9300D000D0CDB7DEB75F
:1010B0009A8389837C836B83E8E5F0E08081882FC5
:1010C00090E0807290700097B9F3A8E5B0E0E8E591
:1010D000F0E0808180628C93E6E4F0E08081918191
:1010E0009093BC028093BB02E8E5F0E08081882FFA
:1010F00090E0807290700097B9F3A8E5B0E0E8E561
:10110000F0E0808180628C93E6E4F0E08081918160
:101110009093BE028093BD022091BD023091BE0229
:101120008091BB029091BC02A901481B590BCA01D6
:101130009093C2028093C10280E00E942308E8E5F8
:10114000F0E08081882F90E0807290700097B9F372
:10115000A8E5B0E0E8E5F0E0808180628C93E6E409
:10116000F0E0808191819093C0028093BF02209132
:10117000BF023091C0028091BD029091BE02A901D0
:10118000481B590BCA019093C4028093C30281E0AB
:101190000E9423088091C1029091C202EB81FC81E0
:1011A000918380838091C3029091C402CC01A0E01E
:1011B000B0E024E630E040E050E0BC01CD010E9408
:1011C000DE2B7B018C018091C1029091C2029C01B7
:1011D00040E050E0C801B7010E94FD2BDA01C901CF
:1011E000E981FA8180830F900F900F900F90CF913B
:1011F000DF911F910F91FF90EF9008951F920F9232
:101200000FB60F9211242F933F934F935F936F93D9
:101210007F938F939F93AF93BF93EF93FF93DF934E
:10122000CF93CDB7DEB78091C5028F5F8093C502A3
:101230008091C502813049F4E6E4F0E0808191813B
:101240009093BC028093BB0241C08091C502823062
:10125000E1F4E6E4F0E0808191819093BE02809316
:10126000BD022091BD023091BE028091BB029091DF
:10127000BC02A901481B590BCA019093C20280937A
:10128000C10280E00E94230821C08091C502833002
:10129000E9F4E6E4F0E0808191819093C0028093CC
:1012A000BF022091BF023091C0028091BD02909197
:1012B000BE02A901481B590BCA019093C402809336
:1012C000C3021092C50281E00E942308CF91DF91F2
:1012D000FF91EF91BF91AF919F918F917F916F910E
:1012E0005F914F913F912F910F900FBE0F901F90E4
:1012F0001895DF93CF93CDB7DEB7A3E5B0E0E3E574
:10130000F0E080818F7B8C93A3E5B0E0E3E5F0E033
:10131000808188608C93A9E5B0E0E9E5F0E0808108
:1013200082608C93A3E5B0E0E3E5F0E08081887F04
:101330008C93A3E5B0E0E3E5F0E080818E7F8C93B1
:10134000A3E5B0E0E3E5F0E0808182608C93A3E563
:10135000B0E0E3E5F0E080818B7F8C93CF91DF916B
:101360000895DF93CF9300D0CDB7DEB79A838983FA
:1013700089819A819093C7028093C6020F900F9043
:10138000CF91DF910895DF93CF9300D0CDB7DEB733
:101390009A83898389819A819093C9028093C80234
:1013A0000F900F90CF91DF910895DF93CF930F921D
:1013B000CDB7DEB789830F90CF91DF910895DF938A
:1013C000CF930F92CDB7DEB78983ECE5F0E089814A
:1013D00080838981882F90E09093CD028093CC0206
:1013E0000F90CF91DF910895DF93CF9300D000D07D
:1013F00000D0CDB7DEB79A8389834B835C836D833E
:101400007E8388EC0E94DF0989819A810E94C3094A
:101410008B819C81AD81BE818093CE029093CF025F
:10142000A093D002B093D10226960FB6F894DEBFF7
:101430000FBECDBFCF91DF910895DF93CF93CDB78E
:10144000DEB72D970FB6F894DEBF0FBECDBF6A870B
:101450007B878C879D87A9E5B0E0E9E5F0E0808196
:101460008D7F8C931E821F821886198688EC0E94BD
:10147000DF098A859B85AC85BD8528EE33E040E099
:1014800050E0BC01CD010E94DE2BDC01CB0128EC39
:1014900030E040E050E0BC01CD010E94FD2BDA01BC
:1014A000C9018E839F83A887B9871A821B821C82F9
:1014B0001D821A821B821C821D8220C0E8E5F0E09A
:1014C00080818270898305C0E8E5F0E080818270C8
:1014D000898389818823C1F3A8E5B0E0E8E5F0E0DD
:1014E000808182608C938A819B81AC81BD810196D1
:1014F000A11DB11D8A839B83AC83BD832A813B815F
:101500004C815D818E819F81A885B9852817390717
:101510004A075B0798F2A9E5B0E0E9E5F0E08081D1
:1015200082608C932D960FB6F894DEBF0FBECDBFB0
:10153000CF91DF910895DF93CF930F92CDB7DEB7B0
:10154000898389810E94DF090F90CF91DF910895EF
:101550001F920F920FB60F9211242F933F934F9328
:101560005F936F937F938F939F93AF93BF93EF930B
:10157000FF93DF93CF93CDB7DEB78091D2029091E6
:10158000D30201969093D3028093D2028091D2022B
:101590009091D3022FE083349207B1F48091C60278
:1015A0009091C702009729F0E091C602F091C7021E
:1015B00009951092D3021092D202E2E5F0E08091F8
:1015C000CA029091CB028083CF91DF91FF91EF917E
:1015D000BF91AF919F918F917F916F915F914F914B
:1015E0003F912F910F900FBE0F901F9018951F9253
:1015F0000F920FB60F9211242F933F934F935F9347
:101600006F937F938F939F93AF93BF93EF93FF93CA
:10161000DF93CF9300D000D0CDB7DEB719821A8206
:101620001B821C828091CE029091CF02A091D002A9
:10163000B091D10228EE33E040E050E0BC01CD0192
:101640000E94DE2BDC01CB0128EC30E040E050E0D2
:10165000BC01CD010E94FD2BDA01C90189839A8367
:10166000AB83BC838091D4029091D5020196909374
:10167000D5028093D4028091CE029091CF02A091A6
:10168000D002B091D1020097A105B105F9F4809183
:10169000D4029091D50223E188389207E9F5809130
:1016A000C8029091C902009729F0E091C802F09118
:1016B000C90209951092D5021092D402ECE5F0E02F
:1016C0008091CC029091CD02808326C08091D4027B
:1016D0009091D5029C0140E050E089819A81AB81D4
:1016E000BC81281739074A075B07B1F48091C8020B
:1016F0009091C902009729F0E091C802F091C902C7
:1017000009951092D5021092D402ECE5F0E0809198
:10171000CC029091CD0280830F900F900F900F908C
:10172000CF91DF91FF91EF91BF91AF919F918F91F9
:101730007F916F915F914F913F912F910F900FBECD
:101740000F901F901895DF93CF93CDB7DEB781E050
:1017500065E041E00E94CF1281E066E040E00E9437
:10176000CF1281E067E041E00E94CF1281E064E0A7
:1017700040E00E94CF1281E064E041E00E945417F3
:10178000ADE2B0E0EDE2F0E0808180618C93ADE20B
:10179000B0E0EDE2F0E080818F7D8C93ADE2B0E0CF
:1017A000EDE2F0E08081877F8C93ADE2B0E0EDE286
:1017B000F0E080818B7F8C93ADE2B0E0EDE2F0E071
:1017C000808181608C93ADE2B0E0EDE2F0E0808159
:1017D0008D7F8C93AEE2B0E0EEE2F0E080818E7F10
:1017E0008C93ADE2B0E0EDE2F0E0808180648C9318
:1017F000CF91DF910895DF93CF93CDB7DEB781E02E
:1018000065E040E00E94CF1281E066E041E00E9486
:10181000CF1281E067E040E00E94CF1281E064E0F7
:1018200040E00E94CF1281E064E040E00E94681432
:10183000ADE2B0E0EDE2F0E080818F7E8C93ADE22E
:10184000B0E0EDE2F0E080818F7D8C93ADE2B0E01E
:10185000EDE2F0E08081877F8C93ADE2B0E0EDE2D5
:10186000F0E080818B7F8C93ADE2B0E0EDE2F0E0C0
:10187000808180648C93CF91DF910895DF93CF9323
:101880000F92CDB7DEB78983EFE2F0E089818083E4
:10189000EEE2F0E080818823DCF7AEE2B0E0EEE239
:1018A000F0E0808180688C93EFE2F0E080810F901F
:1018B000CF91DF910895DF93CF930F92CDB7DEB72D
:1018C0008983EFE2F0E089818083EEE2F0E08081BD
:1018D0008823DCF7AEE2B0E0EEE2F0E080818068E1
:1018E0008C930F90CF91DF910895DF93CF93CDB775
:1018F000DEB7EFE2F0E08081CF91DF910895DF93D2
:10190000CF9300D000D00F92CDB7DEB79B838A83F0
:101910007D836C83198227C0AFE2B0E08981282FD4
:1019200030E08A819B81FC01E20FF31F80818C9360
:10193000EEE2F0E080818823DCF7AEE2B0E0EEE298
:10194000F0E0808180688C938981282F30E08C8141
:101950009D81DC01A20FB31FEFE2F0E080818C9348
:1019600089818F5F89838981282F30E08A819B81DB
:10197000FC01E20FF31F8081882371F60F900F9016
:101980000F900F900F90CF91DF910895DF93CF9339
:101990000F92CDB7DEB78983ADE2B0E0EDE2F0E0C3
:1019A000808180688C93EFE2F0E0898180830F90E2
:1019B000CF91DF910895DF93CF9300D0CDB7DEB7FD
:1019C0009A83898389819A819093D7028093D602E2
:1019D0000F900F90CF91DF9108951F920F920FB645
:1019E0000F9211242F933F934F935F936F937F93A5
:1019F0008F939F93AF93BF93EF93FF93DF93CF9317
:101A000000D00F92CDB7DEB7EFE2F0E080818B839C
:101A1000CE0103969A838983E091D602F091D70292
:101A200089819A810995ADE2B0E0EDE2F0E0808134
:101A30008F778C930F900F900F90CF91DF91FF9144
:101A4000EF91BF91AF919F918F917F916F915F9136
:101A50004F913F912F910F900FBE0F901F901895AF
:101A6000DF93CF930F92CDB7DEB789830E946C10BE
:101A7000E0E2F0E082E08083A1E2B0E0E1E2F0E0C9
:101A800080818E7F8C93A1E2B0E0E1E2F0E0808182
:101A90008D7F8C938981882329F0E2E2F0E08981AF
:101AA000880F8083A6E5B0E0E6E5F0E08081846001
:101AB0008C930F90CF91DF910895DF93CF930F9286
:101AC000CDB7DEB71982A6E5B0E0E6E5F0E08081AB
:101AD00080628C93A6E5B0E0E6E5F0E08081806866
:101AE0008C93E6E5F0E080818823DCF7E1E2F0E02A
:101AF0008081882F90E0887F90708830910511F068
:101B000081E0898389810F90CF91DF910895DF93E0
:101B1000CF930F92CDB7DEB71982A6E5B0E0E6E528
:101B2000F0E0808180628C93A6E5B0E0E6E5F0E02D
:101B3000808180688C93E6E5F0E080818823DCF783
:101B4000E1E2F0E08081882F90E0887F9070803122
:101B5000910511F082E0898389810F90CF91DF9107
:101B60000895DF93CF9300D0CDB7DEB78A83198273
:101B7000E3E2F0E08A81880F8083A3E2B0E0E3E251
:101B8000F0E080818E7F8C93A6E5B0E0E6E5F0E0A2
:101B900080818F7D8C93A6E5B0E0E6E5F0E0808162
:101BA00080688C93E6E5F0E080818823DCF7E1E251
:101BB000F0E08081882F90E0887F907088319105D7
:101BC00011F083E0898389810F900F90CF91DF918D
:101BD0000895DF93CF9300D0CDB7DEB78A83198203
:101BE0000E947A10E3E2F0E08A81880F8083A3E20A
:101BF000B0E0E3E2F0E080818E7F8C93A6E5B0E078
:101C0000E6E5F0E080818F7D8C93A6E5B0E0E6E527
:101C1000F0E0808180688C93E6E5F0E080818823A5
:101C2000DCF7E1E2F0E08081882F90E0887F90701F
:101C30008032910511F084E0898389810F900F90A3
:101C4000CF91DF910895DF93CF9300D0CDB7DEB76A
:101C50008A831982E3E2F0E08A81880F8083A3E21D
:101C6000B0E0E3E2F0E0808181608C93A6E5B0E033
:101C7000E6E5F0E080818F7D8C93A6E5B0E0E6E5B7
:101C8000F0E0808180688C93E6E5F0E08081882335
:101C9000DCF7E1E2F0E08081882F90E0887F9070AF
:101CA0008034910511F085E0898389810F900F9030
:101CB000CF91DF910895DF93CF9300D0CDB7DEB7FA
:101CC0008A8319820E947A10E3E2F0E08A81880F09
:101CD0008083A3E2B0E0E3E2F0E0808181608C9356
:101CE000A6E5B0E0E6E5F0E080818F7D8C93A6E587
:101CF000B0E0E6E5F0E0808180688C93E6E5F0E016
:101D000080818823DCF7E1E2F0E08081882F90E099
:101D1000887F90708834910511F086E089838981ED
:101D20000F900F90CF91DF910895DF93CF9300D064
:101D3000CDB7DEB78A831982E3E2F0E08A8180833F
:101D4000A6E5B0E0E6E5F0E0808180688C93E6E50A
:101D5000F0E080818823DCF7E1E2F0E08081882FE9
:101D600090E0887F90708832910511F087E0898338
:101D700089810F900F90CF91DF910895DF93CF93DA
:101D800000D0CDB7DEB78A8319820E947A10E3E2D1
:101D9000F0E08A818083A6E5B0E0E6E5F0E08081AE
:101DA00080688C93E6E5F0E080818823DCF7E1E24F
:101DB000F0E08081882F90E0887F907080339105DB
:101DC00011F088E0898389810F900F90CF91DF9186
:101DD0000895DF93CF9300D00F92CDB7DEB79B83EA
:101DE0008A831982A6E5B0E0E6E5F0E080818068AC
:101DF0008C93E6E5F0E080818823DCF7E1E2F0E017
:101E00008081882F90E0887F90708035910511F057
:101E100089E08983E3E2F0E08081EA81FB818083CD
:101E200089810F900F900F90CF91DF910895DF93EC
:101E3000CF9300D00F92CDB7DEB79B838A831982F0
:101E40000E947A10A6E5B0E0E6E5F0E080818068C7
:101E50008C93E6E5F0E080818823DCF7E1E2F0E0B6
:101E60008081882F90E0887F90708835910511F0EF
:101E70008AE08983E3E2F0E08081EA81FB8180836C
:101E800089810F900F900F90CF91DF910895DF938C
:101E9000CF93CDB7DEB7A6E5B0E0E6E5F0E0808110
:101EA00080618C93A6E5B0E0E6E5F0E08081806893
:101EB0008C93CF91DF910895DF93CF930F92CDB79D
:101EC000DEB78983E2E2F0E08981880F80830E9497
:101ED0006C10A6E5B0E0E6E5F0E0808184608C93CC
:101EE0000F90CF91DF910895DF93CF930F92CDB7ED
:101EF000DEB71982A6E5B0E0E6E5F0E08081806813
:101F00008C93E6E5F0E080818823DCF7E1E2F0E005
:101F10008081882F90E0887F90708036910511F045
:101F20008BE0898389810F90CF91DF910895DF93B2
:101F3000CF930F92CDB7DEB71982A6E5B0E0E6E504
:101F4000F0E0808180688C93E6E5F0E08081882372
:101F5000DCF7E1E2F0E08081882F90E0887F9070EC
:101F6000883A910511F08CE0898389810F90CF9197
:101F7000DF910895DF93CF9300D00F92CDB7DEB7F6
:101F80009B838A831982A6E5B0E0E6E5F0E08081D4
:101F900080688C93E6E5F0E080818823DCF7E1E25D
:101FA000F0E08081882F90E0887F907080389105E4
:101FB00011F08DE08983E3E2F0E08081EA81FB812A
:101FC000808389810F900F900F90CF91DF910895BA
:101FD000DF93CF9300D00F92CDB7DEB79B838A8378
:101FE00019820E947A10A6E5B0E0E6E5F0E0808173
:101FF00080688C93E6E5F0E080818823DCF7E1E2FD
:10200000F0E08081882F90E0887F9070883891057B
:1020100011F08EE08983E3E2F0E08081EA81FB81C8
:10202000808389810F900F900F90CF91DF91089559
:10203000DF93CF9300D0CDB7DEB78A831982E3E276
:10204000F0E08A818083A6E5B0E0E6E5F0E08081FB
:1020500080688C93E6E5F0E080818823DCF7E1E29C
:10206000F0E08081882F90E0887F9070883B910518
:1020700011F08FE0898389810F900F90CF91DF91CC
:102080000895DF93CF9300D0CDB7DEB78A8319824E
:102090000E947A10E3E2F0E08A818083A6E5B0E056
:1020A000E6E5F0E0808180688C93E6E5F0E08081F1
:1020B0008823DCF7E1E2F0E08081882F90E0887FE0
:1020C0009070803C910511F080E1898389810F90A7
:1020D0000F90CF91DF910895DF93CF93CDB7DEB707
:1020E000A6E5B0E0E6E5F0E0808180648C93CF91D6
:1020F000DF910895DF93CF93CDB7DEB7A6E5B0E0CB
:10210000E6E5F0E080818F7B8C93CF91DF9108959D
:10211000DF93CF9300D00F92CDB7DEB7898389814B
:10212000282F30E03B832A838A819B81009769F0C6
:102130002A813B812130310579F4AFE5B0E0EFE54C
:10214000F0E0808180688C9307C0AFE5B0E0EFE5F8
:10215000F0E080818F778C930F900F900F90CF914C
:10216000DF910895DF93CF93CDB7DEB72A970FB6EF
:10217000F894DEBF0FBECDBF89836A838981282F83
:1021800030E03A87298789859A858130910509F45D
:102190006DC029853A852230310509F4C9C0898589
:1021A0009A85009709F0E9C0ABE5B0E0EBE5F0E017
:1021B000808180648C938A81282F30E038872F8338
:1021C0008F8198858130910521F12F8138852230CA
:1021D00031052CF48F819885009761F0CEC02F8156
:1021E00038852230310521F18F8198858330910522
:1021F00071F1C3C0A5E5B0E0E5E5F0E08081826063
:102200008C93A5E5B0E0E5E5F0E080818E7F8C93CE
:10221000B4C0A5E5B0E0E5E5F0E0808182608C9394
:10222000A5E5B0E0E5E5F0E0808181608C93A5C094
:10223000A5E5B0E0E5E5F0E080818D7F8C93A5E534
:10224000B0E0E5E5F0E080818E7F8C9396C0A5E557
:10225000B0E0E5E5F0E080818D7F8C93A5E5B0E00E
:10226000E5E5F0E0808181608C9387C0ABE5B0E06C
:10227000EBE5F0E0808180688C938A81282F30E044
:102280003E832D838D819E818130910521F12D81A9
:102290003E81223031052CF48D819E81009761F0C2
:1022A0006CC02D813E812230310521F18D819E81CE
:1022B0008330910571F161C0A5E5B0E0E5E5F0E09E
:1022C000808188608C93A5E5B0E0E5E5F0E0808151
:1022D0008B7F8C9352C0A5E5B0E0E5E5F0E080810E
:1022E00088608C93A5E5B0E0E5E5F0E0808184604E
:1022F0008C9343C0A5E5B0E0E5E5F0E08081877F01
:102300008C93A5E5B0E0E5E5F0E080818B7F8C93D0
:1023100034C0A5E5B0E0E5E5F0E08081877F8C93EF
:10232000A5E5B0E0E5E5F0E0808184608C9325C010
:10233000ABE5B0E0EBE5F0E0808180628C938A81D0
:10234000282F30E03C832B838B819C81009731F0D8
:102350002B813C812130310549F00FC0A4E5B0E06C
:10236000E4E5F0E080818F7B8C9307C0A4E5B0E0CA
:10237000E4E5F0E0808180648C932A960FB6F894AF
:10238000DEBF0FBECDBFCF91DF910895DF93CF9316
:1023900000D00F92CDB7DEB789838981282F30E036
:1023A0003B832A838A819B818130910589F02A8130
:1023B0003B8122303105A1F08A819B810097B9F4DD
:1023C000ABE5B0E0EBE5F0E080818F7B8C930FC054
:1023D000ABE5B0E0EBE5F0E080818F778C9307C050
:1023E000ABE5B0E0EBE5F0E080818F7D8C930F9062
:1023F0000F900F90CF91DF910895DF93CF9300D08E
:1024000000D00F92CDB7DEB789837B836A83898141
:10241000282F30E03D832C838C819D818130910574
:1024200081F02C813D812230310591F08C819D819C
:102430000097A1F48A819B819093D9028093D8025E
:102440000DC08A819B819093DB028093DA0206C0E3
:102450008A819B819093DD028093DC020F900F9024
:102460000F900F900F90CF91DF9108951F920F92D0
:102470000FB60F9211242F933F934F935F936F9357
:102480007F938F939F93AF93BF93EF93FF93DF93CC
:10249000CF93CDB7DEB78091D8029091D902009743
:1024A00029F0E091D802F091D9020995CF91DF91FE
:1024B000FF91EF91BF91AF919F918F917F916F911C
:1024C0005F914F913F912F910F900FBE0F901F90F2
:1024D00018951F920F920FB60F9211242F933F93CE
:1024E0004F935F936F937F938F939F93AF93BF931C
:1024F000EF93FF93DF93CF93CDB7DEB78091DA02EE
:102500009091DB02009729F0E091DA02F091DB0272
:102510000995CF91DF91FF91EF91BF91AF919F917D
:102520008F917F916F915F914F913F912F910F907C
:102530000FBE0F901F9018951F920F920FB60F921B
:1025400011242F933F934F935F936F937F938F93B8
:102550009F93AF93BF93EF93FF93DF93CF93CDB749
:10256000DEB78091DC029091DD02009729F0E091C6
:10257000DC02F091DD020995CF91DF91FF91EF919F
:10258000BF91AF919F918F917F916F915F914F918B
:102590003F912F910F900FBE0F901F901895DF93D2
:1025A000CF93CDB7DEB729970FB6F894DEBF0FBE35
:1025B000CDBF89836A834B838981843008F0F6C05C
:1025C0008A81883008F0F2C08B81282F30E039876B
:1025D000288788859985009739F0288539852130A5
:1025E000310509F475C0E2C08981282F30E03F83AE
:1025F0002E838E819F818130910559F12E813F81FB
:10260000223031052CF48E819F81009769F0CEC075
:102610002E813F812230310589F18E819F81833067
:10262000910509F440C0C2C0AAE3B0E0EAE3F0E0DB
:102630008081482F8A81282F30E081E090E0022EAF
:1026400002C0880F991F0A94E2F7809584238C9327
:10265000ADC0A7E3B0E0E7E3F0E08081482F8A81D6
:10266000282F30E081E090E0022E02C0880F991FF1
:102670000A94E2F7809584238C9398C0A4E3B0E099
:10268000E4E3F0E08081482F8A81282F30E081E068
:1026900090E0022E02C0880F991F0A94E2F78095FD
:1026A00084238C9383C0A1E3B0E0E1E3F0E0808178
:1026B000482F8A81282F30E081E090E0022E02C06E
:1026C000880F991F0A94E2F7809584238C936EC03B
:1026D0008981282F30E03D832C838C819D8181303E
:1026E000910549F12C813D81223031052CF48C81FA
:1026F0009D81009761F05AC02C813D8122303105C7
:1027000071F18C819D8183309105E9F14FC0AAE37D
:10271000B0E0EAE3F0E08081482F8A81282F30E0A2
:1027200081E090E0022E02C0880F991F0A94E2F720
:10273000842B8C933BC0A7E3B0E0E7E3F0E080811B
:10274000482F8A81282F30E081E090E0022E02C0DD
:10275000880F991F0A94E2F7842B8C9327C0A4E377
:10276000B0E0E4E3F0E08081482F8A81282F30E058
:1027700081E090E0022E02C0880F991F0A94E2F7D0
:10278000842B8C9313C0A1E3B0E0E1E3F0E08081FF
:10279000482F8A81282F30E081E090E0022E02C08D
:1027A000880F991F0A94E2F7842B8C9329960FB611
:1027B000F894DEBF0FBECDBFCF91DF910895DF93B8
:1027C000CF93CDB7DEB728970FB6F894DEBF0FBE14
:1027D000CDBF89836A838981843008F070C08A8183
:1027E000282F30E038872F838F819885009731F02C
:1027F0002F8138852130310581F161C08981282FF1
:1028000030E03E832D838D819E8181309105C9F01A
:102810002D813E81223031052CF48D819E810097DF
:1028200061F04DC02D813E812230310571F08D81E6
:102830009E818330910569F042C0EAE3F0E01082A6
:102840003EC0E7E3F0E010823AC0E4E3F0E010823B
:1028500036C0E1E3F0E0108232C08981282F30E0F9
:102860003C832B838B819C8181309105D1F02B811E
:102870003C81223031052CF48B819C81009761F0E2
:102880001EC02B813C812230310581F08B819C81DF
:102890008330910581F013C0EAE3F0E08FEF80838D
:1028A0000EC0E7E3F0E08FEF808309C0E4E3F0E0DF
:1028B0008FEF808304C0E1E3F0E08FEF8083289600
:1028C0000FB6F894DEBF0FBECDBFCF91DF91089554
:1028D000DF93CF93CDB7DEB729970FB6F894DEBF5D
:1028E0000FBECDBF89836A834B838981843008F012
:1028F000F6C08A81883008F0F2C08B81282F30E042
:102900003987288788859985009739F02885398502
:102910002130310509F475C0E2C08981282F30E0EB
:102920003F832E838E819F818130910559F12E81C5
:102930003F81223031052CF48E819F81009769F010
:10294000CEC02E813F812230310589F18E819F8159
:102950008330910509F440C0C2C0ABE3B0E0EBE3C3
:10296000F0E08081482F8A81282F30E081E090E0DC
:10297000022E02C0880F991F0A94E2F780958423E3
:102980008C93ADC0A8E3B0E0E8E3F0E08081482F8D
:102990008A81282F30E081E090E0022E02C0880F6B
:1029A000991F0A94E2F7809584238C9398C0A5E33D
:1029B000B0E0E5E3F0E08081482F8A81282F30E005
:1029C00081E090E0022E02C0880F991F0A94E2F77E
:1029D000809584238C9383C0A2E3B0E0E2E3F0E02F
:1029E0008081482F8A81282F30E081E090E0022EFC
:1029F00002C0880F991F0A94E2F7809584238C9374
:102A00006EC08981282F30E03D832C838C819D818D
:102A10008130910549F12C813D81223031052CF422
:102A20008C819D81009761F05AC02C813D812230BC
:102A3000310571F18C819D8183309105E9F14FC0A1
:102A4000ABE3B0E0EBE3F0E08081482F8A81282FF0
:102A500030E081E090E0022E02C0880F991F0A94B6
:102A6000E2F7842B8C933BC0A8E3B0E0E8E3F0E00E
:102A70008081482F8A81282F30E081E090E0022E6B
:102A800002C0880F991F0A94E2F7842B8C9327C009
:102A9000A5E3B0E0E5E3F0E08081482F8A81282FAC
:102AA00030E081E090E0022E02C0880F991F0A9466
:102AB000E2F7842B8C9313C0A2E3B0E0E2E3F0E0F2
:102AC0008081482F8A81282F30E081E090E0022E1B
:102AD00002C0880F991F0A94E2F7842B8C932996E1
:102AE0000FB6F894DEBF0FBECDBFCF91DF91089532
:102AF000DF93CF9300D000D0CDB7DEB789836A8350
:102B00008981843090F58981282F30E03C832B83A4
:102B10008B819C8181309105D1F02B813C812230C9
:102B200031052CF48B819C81009761F01EC02B81B4
:102B30003C812230310581F08B819C81833091056D
:102B400081F013C0EBE3F0E08A8180830EC0E8E3FC
:102B5000F0E08A81808309C0E5E3F0E08A81808328
:102B600004C0E2E3F0E08A8180830F900F900F9021
:102B70000F90CF91DF910895DF93CF9300D000D0D5
:102B80000F92CDB7DEB78A836B838A81843008F0D9
:102B90006AC08B81883008F066C08A81282F30E0B7
:102BA0003D832C838C819D818130910539F12C816D
:102BB0003D81223031052CF48C819D81009761F09C
:102BC00052C02C813D812230310551F18C819D8193
:102BD00083309105B9F147C0E9E3F0E08081482FE7
:102BE0008B81282F30E081E090E0022E02C0880F18
:102BF000991F0A94E2F78423898335C0E6E3F0E065
:102C00008081482F8B81282F30E081E090E0022ED8
:102C100002C0880F991F0A94E2F78423898323C096
:102C2000E3E3F0E08081482F8B81282F30E081E0C2
:102C300090E0022E02C0880F991F0A94E2F78423C5
:102C4000898311C0E0E3F0E08081482F8B81282F39
:102C500030E081E090E0022E02C0880F991F0A94B4
:102C6000E2F78423898389810F900F900F900F9052
:102C70000F90CF91DF910895DF93CF9300D000D0D4
:102C8000CDB7DEB78A838A81843090F58A81282F78
:102C900030E03C832B838B819C8181309105D1F086
:102CA0002B813C81223031052CF48B819C81009753
:102CB00061F01EC02B813C812230310581F08B8177
:102CC0009C818330910581F013C0E9E3F0E08081BD
:102CD00089830EC0E6E3F0E08081898309C0E3E3E5
:102CE000F0E08081898304C0E0E3F0E080818983A3
:102CF00089810F900F900F900F90CF91DF910895E1
:102D0000DF93CF9300D000D0CDB7DEB789836A833D
:102D10008981843008F072C08A81883008F06EC0E2
:102D20008981282F30E03C832B838B819C818130EB
:102D3000910549F12B813C81223031052CF48B81A6
:102D40009C81009761F05AC02B813C812230310573
:102D500071F18B819C8183309105E9F14FC0ABE328
:102D6000B0E0EBE3F0E08081482F8A81282F30E04B
:102D700081E090E0022E02C0880F991F0A94E2F7CA
:102D800084278C933BC0A8E3B0E0E8E3F0E08081C7
:102D9000482F8A81282F30E081E090E0022E02C087
:102DA000880F991F0A94E2F784278C9327C0A5E324
:102DB000B0E0E5E3F0E08081482F8A81282F30E001
:102DC00081E090E0022E02C0880F991F0A94E2F77A
:102DD00084278C9313C0A2E3B0E0E2E3F0E08081AB
:102DE000482F8A81282F30E081E090E0022E02C037
:102DF000880F991F0A94E2F784278C930F900F9005
:102E00000F900F90CF91DF910895DF93CF9300D073
:102E10000F92CDB7DEB789838981843008F03EC038
:102E20008981282F30E03B832A838A819B818130EE
:102E30009105E9F02A813B81223031052CF48A8109
:102E40009B81009761F02AC02A813B8122303105A5
:102E5000B1F08A819B8183309105C9F01FC0ABE33B
:102E6000B0E0EBE3F0E0808180958C9317C0A8E39D
:102E7000B0E0E8E3F0E0808180958C930FC0A5E39B
:102E8000B0E0E5E3F0E0808180958C9307C0A2E399
:102E9000B0E0E2E3F0E0808180958C930F900F909A
:102EA0000F90CF91DF910895DF93CF9300D000D0A2
:102EB0000F92CDB7DEB789836A834B8389818430D3
:102EC000E0F48A818830C8F48B81282F30E03D837C
:102ED0002C838C819D81009759F02C813D8121307C
:102EE000310559F489816A8141E00E94681405C066
:102EF00089816A8140E00E9468140F900F900F90C2
:102F00000F900F90CF91DF910895DF93CF9300D072
:102F100000D0CDB7DEB789836A8389818430B8F465
:102F20008A81282F30E03C832B838B819C81009702
:102F300051F02B813C812130310549F4898161E0D8
:102F40000E94781504C0898160E00E9478150F9076
:102F50000F900F900F90CF91DF910895DF93CF9353
:102F6000CDB7DEB7A7E2B0E0E7E2F0E080818064B1
:102F70008C93A7E2B0E0E7E2F0E080818F778C935A
:102F8000A7E2B0E0E7E2F0E080818F7D8C93A6E2DB
:102F9000B0E0E6E2F0E0808180688C93A6E2B0E0E9
:102FA000E6E2F0E080818F7D8C93A6E2B0E0E6E27D
:102FB000F0E08081877F8C93A6E2B0E0E6E2F0E06B
:102FC0008081887F8C93A6E2B0E0E6E2F0E0808129
:102FD00081608C93A6E2B0E0E6E2F0E0808182605E
:102FE0008C93A6E2B0E0E6E2F0E0808184608C930E
:102FF000CF91DF910895DF93CF9300D000D0CDB76C
:10300000DEB78A83A7E2B0E0E7E2F0E08081807E6D
:103010008C938A81282F30E03C832B838B819C8189
:103020008330910509F445C02B813C812430310562
:103030007CF48B819C818130910549F12B813C810D
:10304000223031056CF58B819C810097C1F05DC009
:103050002B813C812530310509F43DC08B819C8159
:10306000853091057CF12B813C8126303105E1F1E1
:103070008B819C818730910509F43FC046C0A7E24F
:10308000B0E0E7E2F0E08081807E8C933EC0A7E272
:10309000B0E0E7E2F0E08081807E81608C9335C013
:1030A000A7E2B0E0E7E2F0E08081807E82608C936E
:1030B0002CC0A7E2B0E0E7E2F0E08081807E836090
:1030C0008C9323C0A7E2B0E0E7E2F0E08081807E4D
:1030D00084608C931AC0A7E2B0E0E7E2F0E0808160
:1030E000807E85608C9311C0A7E2B0E0E7E2F0E05B
:1030F0008081807E86608C9308C0A7E2B0E0E7E222
:10310000F0E08081807E87608C93A6E2B0E0E6E20A
:10311000F0E0808180648C93198205C0E6E2F0E0E3
:1031200080818071898389818823C1F3A6E2B0E020
:10313000E6E2F0E0808180618C93E4E2F0E080815F
:1031400091810F900F900F900F90CF91DF91089584
:10315000DF93CF93CDB7DEB727970FB6F894DEBFD6
:103160000FBECDBF89837B836A838091E20288236F
:1031700021F08A819B81009719F41F821E829FC0D3
:103180001092E202A7E2B0E0E7E2F0E08081807E08
:103190008C938981282F30E03D832C838C819D8105
:1031A0008330910509F445C02C813D8124303105DF
:1031B0007CF48C819D818130910549F12C813D8188
:1031C000223031056CF58C819D810097C1F05DC086
:1031D0002C813D812530310509F43DC08C819D81D4
:1031E000853091057CF12C813D8126303105E1F15E
:1031F0008C819D818730910509F43FC046C0A7E2CC
:10320000B0E0E7E2F0E08081807E8C933EC0A7E2F0
:10321000B0E0E7E2F0E08081807E81608C9335C091
:10322000A7E2B0E0E7E2F0E08081807E82608C93EC
:103230002CC0A7E2B0E0E7E2F0E08081807E83600E
:103240008C9323C0A7E2B0E0E7E2F0E08081807ECB
:1032500084608C931AC0A7E2B0E0E7E2F0E08081DE
:10326000807E85608C9311C0A7E2B0E0E7E2F0E0D9
:103270008081807E86608C9308C0A7E2B0E0E7E2A0
:10328000F0E08081807E87608C938A819B8190931F
:10329000DF028093DE02A6E2B0E0E6E2F0E08081A9
:1032A00080648C93A6E2B0E0E6E2F0E08081886082
:1032B0008C932091E0023091E1023F832E838E8136
:1032C0009F8127960FB6F894DEBF0FBECDBFCF917A
:1032D000DF9108951F920F920FB60F9211242F9332
:1032E0003F934F935F936F937F938F939F93AF938E
:1032F000BF93EF93FF93DF93CF93CDB7DEB7E4E2B5
:10330000F0E0808191819093E1028093E00281E07E
:103310008093E202E091DE02F091DF020995A6E2DD
:10332000B0E0E6E2F0E08081877F8C93CF91DF917F
:10333000FF91EF91BF91AF919F918F917F916F918D
:103340005F914F913F912F910F900FBE0F901F9063
:103350001895DF93CF9300D000D000D0CDB7DEB763
:103360009E838D8383E065E041E00E94CF128D81D2
:103370009E81CC01A0E0B0E028EE33E040E050E0D8
:10338000BC01CD010E94DE2BDC01CB0184599144AC
:10339000AD4FBF4F24EB30E040E050E0BC01CD0129
:1033A0000E94FD2BDA01C90189839A83AB83BC8318
:1033B00089819A816FE17EE40E94ED0726960FB61F
:1033C000F894DEBF0FBECDBFCF91DF910895DF939C
:1033D000CF9300D000D000D0CDB7DEB79E838D83D1
:1033E00083E064E041E00E94CF128D819E81CC0198
:1033F000A0E0B0E028EE33E040E050E0BC01CD01B9
:103400000E94DE2BDC01CB0184599144AD4FBF4FAC
:1034100024EB30E040E050E0BC01CD010E94FD2BE8
:10342000DA01C90189839A83AB83BC8389819A813C
:103430006FE17EE40E94080826960FB6F894DEBF7E
:103440000FBECDBFCF91DF910895DF93CF9300D012
:10345000CDB7DEB789836A838981843040F48A815D
:10346000883028F489816A8141E00E94CF120F9050
:103470000F90CF91DF910895DF93CF930F92CDB747
:10348000DEB789838981843020F4898161E00E94DC
:10349000DF130F90CF91DF910895DF93CF9300D08A
:1034A00000D00F92CDB7DEB789836A834B838981C1
:1034B0008430E0F48A818830C8F48B81282F30E092
:1034C0003D832C838C819D81009759F02C813D8117
:1034D0002130310559F489816A8141E00E946814E4
:1034E00005C089816A8140E00E9468140F900F90A6
:1034F0000F900F900F90CF91DF910895DF93CF93AE
:1035000000D000D0CDB7DEB789836A83898184304B
:10351000B8F48A81282F30E03C832B838B819C81F7
:10352000009751F02B813C812130310549F489818C
:1035300061E00E94781504C0898160E00E947815DE
:103540000F900F900F900F90CF91DF910895DF9320
:10355000CF9300D0CDB7DEB789836A838981843069
:1035600038F48A81883020F489816A810E9480162B
:103570000F900F90CF91DF910895DF93CF930F922B
:10358000CDB7DEB789838981843018F489810E94A0
:1035900005170F90CF91DF9108950F931F93DF933D
:1035A000CF93CDB7DEB7C654D0400FB6F894DEBF88
:1035B0000FBECDBF81E061E00E94DF1383E062E0D7
:1035C00041E00E94CF1283E063E041E00E94CF120D
:1035D00083E064E041E00E94CF12FE01ED5BFF4F0B
:1035E00080E090E0ACE0B2E480839183A283B38377
:1035F0008E01015C1F4FFE01ED5BFF4F6081718109
:103600008281938120E030E04AEF54E40E941F025F
:10361000DC01CB01F80180839183A283B383FE0197
:10362000FF96608171818281938120E030E040E8E3
:103630005FE30E94790388232CF481E090E09EAF41
:103640008DAF46C0FE01FF966081718182819381BA
:1036500020E03FEF4FE757E40E941903181664F586
:10366000FE01ED5BFF4F608171818281938120E0DB
:1036700030E040E251E40E941F02DC01CB01BC01BA
:10368000CD010E944900DC01CB019EAF8DAF0FC080
:1036900088EC90E09CAF8BAF8BAD9CAD0197F1F7C0
:1036A0009CAF8BAF8DAD9EAD01979EAF8DAF8DADB5
:1036B0009EAD009769F716C0FE01FF96608171818B
:1036C000828193810E944900DC01CB019EAF8DAFC6
:1036D0008DAD9EAD9AAF89AF89AD9AAD0197F1F7E7
:1036E0009AAF89AF8CE30E94521D80E090E0A0E881
:1036F000BFE38DAB9EABAFABB8AF6DA97EA98FA971
:1037000098AD20E030E04AEF54E40E941F02DC0153
:10371000CB0189AB9AABABABBCAB69A97AA98BA93E
:103720009CA920E030E040E85FE30E947903882311
:103730002CF481E090E098AB8FA73FC069A97AA9EB
:103740008BA99CA920E03FEF4FE757E40E941903A3
:1037500018164CF56DA97EA98FA998AD20E030E030
:1037600040E251E40E941F02DC01CB01BC01CD010B
:103770000E944900DC01CB0198AB8FA70FC088ECF9
:1037800090E09EA78DA78DA59EA50197F1F79EA716
:103790008DA78FA598A9019798AB8FA78FA598A9FA
:1037A000009769F714C069A97AA98BA99CA90E94FE
:1037B0004900DC01CB0198AB8FA78FA598A99CA7E6
:1037C0008BA78BA59CA50197F1F79CA78BA78CE0F5
:1037D0000E94521D80E090E0A0E8BFE38FA398A76D
:1037E000A9A7BAA76FA178A589A59AA520E030E07E
:1037F0004AEF54E40E941F02DC01CB018BA39CA37F
:10380000ADA3BEA36BA17CA18DA19EA120E030E061
:1038100040E85FE30E94790388232CF481E090E084
:103820009AA389A33FC06BA17CA18DA19EA120E09A
:103830003FEF4FE757E40E94190318164CF56FA1AC
:1038400078A589A59AA520E030E040E251E40E94E5
:103850001F02DC01CB01BC01CD010E944900DC014B
:10386000CB019AA389A30FC088EC90E098A38F8F17
:103870008F8D98A10197F1F798A38F8F89A19AA1B5
:1038800001979AA389A389A19AA1009769F714C007
:103890006BA17CA18DA19EA10E944900DC01CB01FE
:1038A0009AA389A389A19AA19E8F8D8F8D8D9E8DBC
:1038B0000197F1F79E8F8D8F81E00E94521D80E06D
:1038C00090E0A0E0B0E4898F9A8FAB8FBC8F698DB8
:1038D0007A8D8B8D9C8D20E030E04AEF54E40E947D
:1038E0001F02DC01CB018D8B9E8BAF8BB88F6D8956
:1038F0007E898F89988D20E030E040E85FE30E9468
:10390000790388232CF481E090E09C8B8B8B3FC063
:103910006D897E898F89988D20E03FEF4FE757E4CE
:103920000E94190318164CF5698D7A8D8B8D9C8D2C
:1039300020E030E040E251E40E941F02DC01CB01B4
:10394000BC01CD010E944900DC01CB019C8B8B8B1B
:103950000FC088EC90E09A8B898B89899A890197AE
:10396000F1F79A8B898B8B899C8901979C8B8B8B28
:103970008B899C89009769F714C06D897E898F892E
:10398000988D0E944900DC01CB019C8B8B8B8B892D
:103990009C89988B8F878F8598890197F1F7988BF1
:1039A0008F8786E00E94521D80E090E0A0E8BFE390
:1039B0008B879C87AD87BE876B857C858D859E8533
:1039C00020E030E04AEF54E40E941F02DC01CB010A
:1039D0008F839887A987BA876F81788589859A852B
:1039E00020E030E040E85FE30E94790388232CF474
:1039F00081E090E09E838D833FC06F8178858985CB
:103A00009A8520E03FEF4FE757E40E94190318160C
:103A10004CF56B857C858D859E8520E030E040E20D
:103A200051E40E941F02DC01CB01BC01CD010E94C8
:103A30004900DC01CB019E838D830FC088EC90E0B0
:103A40009C838B838B819C810197F1F79C838B8373
:103A50008D819E8101979E838D838D819E810097AC
:103A600069F714C06F81788589859A850E9449001D
:103A7000DC01CB019E838D838D819E819A83898316
:103A800089819A810197F1F79A838983CA5BDF4F15
:103A90000FB6F894DEBF0FBECDBFCF91DF911F915F
:103AA0000F910895DF93CF930F92CDB7DEB789833F
:103AB00083E062E040E00E94681483E063E040E05D
:103AC0000E94681481E069810E94781583E064E0B7
:103AD00041E00E94681483E064E040E00E946814C2
:103AE0000F90CF91DF910895DF93CF930F92CDB7D1
:103AF000DEB7898383E062E041E00E94681483E0DE
:103B000063E040E00E94681481E069810E947815BA
:103B100083E064E041E00E94681483E064E040E0F8
:103B20000E9468140F90CF91DF910895DF93CF9397
:103B300000D00F92CDB7DEB79B838A8319820EC067
:103B40008981282F30E08A819B81FC01E20FF31FDD
:103B500080810E94741D89818F5F89838981282FCC
:103B600030E08A819B81FC01E20FF31F8081882372
:103B700039F70F900F900F90CF91DF9108950F9329
:103B80001F93DF93CF93CDB7DEB76B970FB6F89443
:103B9000DEBF0FBECDBF688F798F8A8F9B8F1B8250
:103BA0002DC08B81082F10E0888D998DAA8DBB8D3B
:103BB0002AE030E040E050E0BC01CD010E94FD2B46
:103BC000DC01CB01282FCE010496FC01E00FF11F90
:103BD0002083888D998DAA8DBB8D2AE030E040E04E
:103BE00050E0BC01CD010E94FD2BDA01C901888F94
:103BF000998FAA8FBB8F8B818F5F8B83888D998DD7
:103C0000AA8DBB8D0097A105B10559F68B81815016
:103C10008B838B81882F90E09A83898310C02981C0
:103C20003A81CE010496FC01E20FF31F8081805D92
:103C30000E94741D89819A8101979A838983898161
:103C40009A81992364F76B960FB6F894DEBF0FBE86
:103C5000CDBFCF91DF911F910F910895DF93CF9347
:103C600000D000D0CDB7DEB789836A8389818230E6
:103C7000D8F48A818031C0F48981282F30E03C83D8
:103C80002B838B819C81009731F02B813C812130EB
:103C9000310531F009C08A8180580E94521D04C04C
:103CA0008A8180540E94521D0F900F900F900F90A8
:103CB000CF91DF910895DF93CF9300D000D0CDB79F
:103CC000DEB78A837C836B838A810E94521D1982AE
:103CD0000EC08981282F30E08B819C81FC01E20F8E
:103CE000F31F80810E94741D89818F5F8983898180
:103CF000883078F30F900F900F900F90CF91DF9155
:103D00000895DF93CF9300D00F92CDB7DEB78983AC
:103D10006A834B838A816B810E942E1E89810E9457
:103D2000741D0F900F900F90CF91DF910895DF9346
:103D3000CF93CDB7DEB781E00E94521DCF91DF91C6
:103D40000895DF93CF93CDB7DEB787E00E94521D71
:103D5000CF91DF910895DF93CF93CDB7DEB785E0A4
:103D60000E94521DCF91DF910895DF93CF9300D031
:103D7000CDB7DEB789836A8389816A810E942E1E4E
:103D800080E20E94741D0F900F90CF91DF910895F3
:103D9000DF93CF9300D0CDB7DEB78A8319820AC0F4
:103DA0008A8169810E942E1E80E20E94741D898191
:103DB0008F5F89838981803198F30F900F90CF9125
:103DC000DF910895DF93CF93CDB7DEB780E064E055
:103DD00041E00E94CF1280E065E041E00E94CF12F6
:103DE00080E066E041E00E94CF1280E067E041E0C1
:103DF0000E94CF1280E060E040E00E94CF1280E09D
:103E000061E040E00E94CF1280E062E040E00E946A
:103E1000CF1280E063E040E00E94CF1280E060E0DB
:103E200041E00E94541780E061E041E00E94541795
:103E300080E062E041E00E94541780E063E041E0EE
:103E40000E94541780E064E041E00E94681480E022
:103E500065E041E00E94681480E066E041E00E9475
:103E6000681480E067E041E00E946814CF91DF9120
:103E70000895DF93CF9300D000D00F92CDB7DEB777
:103E80008FEF8A8319821D826DC08D81882F90E00B
:103E9000FC01E757FD4F908180E0692F40E00E94D0
:103EA00068141C8249C08C81882F90E0FC01E35784
:103EB000FD4F908180E0692F0E94BC158B838B8120
:103EC0008823B9F520C08C81482F50E08D81282FA0
:103ED00030E0CA01880F991F880F991F820F931F26
:103EE000FC01EF56FD4F80818A838C81882F90E002
:103EF000FC01E357FD4F908180E0692F0E94BC15C3
:103F00008B8381E089838B818823E9F28C81482F20
:103F100050E08D81282F30E0CA01880F991F880F4B
:103F2000991F820F931FFC01EF56FD4F80818A83FA
:103F300007C08C818F5F8C838C81843008F4B3CF71
:103F40008D81882F90E0FC01E757FD4F908180E044
:103F5000692F41E00E9468148981813039F08D8198
:103F60008F5F8D838D81843008F48FCF8A810F908D
:103F70000F900F900F900F90CF91DF910895DF93E6
:103F8000CF93CDB7DEB762970FB6F894DEBF0FBE02
:103F9000CDBF998B888B6A8B88899989892F9927BE
:103FA00080658F870E945D0D8F850E94B10D888985
:103FB0000E94950E8A890E94950E0E94470F80E00C
:103FC00090E0A0E2B1E48B879C87AD87BE876B85CC
:103FD0007C858D859E8520E030E04AEF54E40E9488
:103FE0001F02DC01CB018F839887A987BA876F8175
:103FF000788589859A8520E030E040E85FE30E947B
:10400000790388232CF481E090E09E838D833FC068
:104010006F81788589859A8520E03FEF4FE757E4E7
:104020000E94190318164CF56B857C858D859E853D
:1040300020E030E040E251E40E941F02DC01CB01AD
:10404000BC01CD010E944900DC01CB019E838D8320
:104050000FC088EC90E09C838B838B819C810197BF
:10406000F1F79C838B838D819E8101979E838D8345
:104070008D819E81009769F714C06F81788589854D
:104080009A850E944900DC01CB019E838D838D813E
:104090009E819A83898389819A810197F1F79A8316
:1040A000898362960FB6F894DEBF0FBECDBFCF9165
:1040B000DF910895DF93CF93CDB7DEB762970FB648
:1040C000F894DEBF0FBECDBF9A8B898B89899A8900
:1040D000892F992780658F870E945D0D8F850E94AB
:1040E000B10D89890E94950E0E94870D8F850E94CF
:1040F000230ECE0140960E94170F0E94470F80E0CA
:1041000090E0A0E2B1E48B879C87AD87BE876B858A
:104110007C858D859E8520E030E04AEF54E40E9446
:104120001F02DC01CB018F839887A987BA876F8133
:10413000788589859A8520E030E040E85FE30E9439
:10414000790388232CF481E090E09E838D833FC027
:104150006F81788589859A8520E03FEF4FE757E4A6
:104160000E94190318164CF56B857C858D859E85FC
:1041700020E030E040E251E40E941F02DC01CB016C
:10418000BC01CD010E944900DC01CB019E838D83DF
:104190000FC088EC90E09C838B838B819C8101977E
:1041A000F1F79C838B838D819E8101979E838D8304
:1041B0008D819E81009769F714C06F81788589850C
:1041C0009A850E944900DC01CB019E838D838D81FD
:1041D0009E819A83898389819A810197F1F79A83D5
:1041E0008983888962960FB6F894DEBF0FBECDBF73
:1041F000CF91DF910895DF93CF9300D00F92CDB789
:10420000DEB789836A834B838981843068F48A812D
:10421000883050F489816A8140E00E94CF12898100
:104220006A814B810E9454170F900F900F90CF918D
:10423000DF910895DF93CF9300D0CDB7DEB78983A8
:104240006A838981843040F4898160E00E94DF13B1
:1042500089816A810E9485170F900F90CF91DF911D
:104260000895DF93CF9300D00F92CDB7DEB78A8346
:104270006B838A81843040F48B81883028F48A8172
:104280006B810E94BC15898389810F900F900F90DC
:10429000CF91DF910895DF93CF9300D0CDB7DEB7F4
:1042A0008A838A81843020F48A810E943C16898323
:1042B00089810F900F90CF91DF910895DF93CF9375
:1042C00000D00F92CDB7DEB789838981282F30E0E7
:1042D0003B832A838A819B8181309105D1F02A8199
:1042E0003B81223031052CF48A819B81009761F05B
:1042F0001EC02A813B812230310581F08A819B8159
:104300008330910581F013C080E061E00E94DF13EB
:104310000EC081E061E00E94DF1309C082E061E02D
:104320000E94DF1304C083E061E00E94DF130F905E
:104330000F900F90CF91DF910895DF93CF93CDB77A
:10434000DEB729970FB6F894DEBF0FBECDBF8983C5
:104350006A834B838A81282F30E0398728878885B4
:104360009985009739F0288539852130310509F480
:1043700050C0A5C08981282F30E03F832E838E81D5
:104380009F818130910509F12E813F8122303105D5
:104390002CF48E819F81009761F091C02E813F8126
:1043A00022303105F1F08E819F818330910529F112
:1043B00086C08B81882F90E0FC01EF55FD4F9081E6
:1043C00080E0692F0E9478157AC08B81882F90E059
:1043D000FC01EF55FD4F908181E0692F0E94781517
:1043E0006EC08B81882F90E0FC01EF55FD4F9081CE
:1043F00082E0692F0E94781562C08B81882F90E03F
:10440000FC01EF55FD4F908183E0692F0E947815E4
:1044100056C08981282F30E03D832C838C819D817B
:104420008130910519F12C813D81223031052CF428
:104430008C819D81009761F042C02C813D812230AA
:10444000310511F18C819D818330910559F137C07F
:104450008B81882F90E0FC01EF55FD4F8081982FD4
:10446000909580E0692F0E94781529C08B81882F54
:1044700090E0FC01EF55FD4F8081982F909581E0F1
:10448000692F0E9478151BC08B81882F90E0FC015A
:10449000EF55FD4F8081982F909582E0692F0E9403
:1044A00078150DC08B81882F90E0FC01EF55FD4FF2
:1044B0008081982F909583E0692F0E947815299626
:1044C0000FB6F894DEBF0FBECDBFCF91DF91089538
:1044D000DF93CF93CDB7DEB7A1970FB6F894DEBFC9
:1044E0000FBECDBF80E00E94300D81E090E06BE711
:1044F0000E94BF1F82E090E062E90E94BF1F83E03C
:1045000090E069E70E94BF1F84E090E065E10E94AF
:10451000BF1F1F8E1E8E0E94E9060E94CD1A0E94A8
:10452000E21E0E94A30583E066E041E00E94CF12F4
:1045300083E066E040E00E9468140E94B2240E947A
:10454000CF2580E00E94C81E81E00E94C81E80E046
:1045500060E00E942E1E80E690E00E94961D81E0A1
:104560006DE00E942E1E81E790E00E94961D1D8E38
:10457000F4C10E9445269F8F8E8F8091E302282FE1
:1045800030E08E8D9F8D2817390709F099C18AE593
:104590000E940B0680E00E94C81E81E00E94C81E97
:1045A0000E94C82B80E061E00E942E1E85E790E00B
:1045B0000E94961D81E063E00E942E1E84E890E038
:1045C0000E94961D80E090E0AAE7B4E4898F9A8F5C
:1045D000AB8FBC8F698D7A8D8B8D9C8D20E030E008
:1045E0004AEF54E40E941F02DC01CB018D8B9E8BAD
:1045F000AF8BB88F6D897E898F89988D20E030E0F0
:1046000040E85FE30E94790388232CF481E090E086
:104610009C8B8B8B3FC06D897E898F89988D20E024
:104620003FEF4FE757E40E94190318164CF5698DC8
:104630007A8D8B8D9C8D20E030E040E251E40E9429
:104640001F02DC01CB01BC01CD010E944900DC014D
:10465000CB019C8B8B8B0FC088EC90E09A8B898B65
:1046600089899A890197F1F79A8B898B8B899C8923
:1046700001979C8B8B8B8B899C89009769F714C061
:104680006D897E898F89988D0E944900DC01CB015C
:104690009C8B8B8B8B899C89988B8F878F85988936
:1046A0000197F1F7988B8F878091AB02882309F0EF
:1046B000D8C080E00E94C81E81E00E94C81E80E031
:1046C00060E00E942E1E8EE890E00E94961D80E021
:1046D00090E0AFE2B4E48B879C87AD87BE876B85A3
:1046E0007C858D859E8520E030E04AEF54E40E9471
:1046F0001F02DC01CB018F839887A987BA876F815E
:10470000788589859A8520E030E040E85FE30E9463
:10471000790388232CF481E090E09E838D833FC051
:104720006F81788589859A8520E03FEF4FE757E4D0
:104730000E94190318164CF56B857C858D859E8526
:1047400020E030E040E251E40E941F02DC01CB0196
:10475000BC01CD010E944900DC01CB019E838D8309
:104760000FC088EC90E09C838B838B819C810197A8
:10477000F1F79C838B838D819E8101979E838D832E
:104780008D819E81009769F714C06F817885898536
:104790009A850E944900DC01CB019E838D838D8127
:1047A0009E819A83898389819A810197F1F79A83FF
:1047B000898380E00E94C81E81E00E94C81E80E0BC
:1047C00060E00E942E1E80E690E00E94961D81E02F
:1047D0006DE00E942E1E81E790E00E94961D8FEFF3
:1047E0008D8F81E08093AB028091E502282F30E02D
:1047F00039A328A388A199A182309105E9F028A1C5
:1048000039A12330310534F488A199A18130910573
:1048100061F0A0C028A139A123303105A1F088A101
:1048200099A184309105B1F095C081E090E00E949B
:104830005A208093E3028EC082E090E00E945A20CA
:104840008093E30287C083E090E00E945A20809327
:10485000E30280C084E090E00E945A208093E3024B
:1048600079C080E060E00E942E1E8FE990E00E94F7
:10487000961D81E060E00E942E1E80EB90E00E9479
:10488000961D0E94391F8093E4028091E4028F3FBD
:1048900009F40ACF8091E402813319F40E94A82818
:1048A00003CF8091E402823319F40E94052AFCCEE2
:1048B0008091E402833309F0F7CE0E948926F4CE7A
:1048C0008D8D823009F580E00E94C81E81E00E9433
:1048D000C81E80E060E00E942E1E80EC90E00E94E6
:1048E000961D81E060E00E942E1E80ED90E00E9407
:1048F000961D8EE40E940B0683E066E041E00E9474
:1049000068140E94D32B33CE80E00E94C81E81E041
:104910000E94C81E80E060E00E942E1E81EE90E0A2
:104920000E94961D81E06DE00E942E1E8DEE90E0AB
:104930000E94961D8D8D882F90E00296AA2797FDE4
:10494000A095BA2FBC01CD010E94BF1D8FEE90E053
:104950000E94961D8D8D8F5F8D8F8D8D833008F415
:1049600008CE05CEDF93CF93CDB7DEB76C970FB6E9
:10497000F894DEBF0FBECDBF80E060E00E942E1E27
:1049800081EF90E00E94961D81E060E00E942E1E63
:1049900082E091E00E94961D80E090E0AFE2B4E4F6
:1049A000898F9A8FAB8FBC8F698D7A8D8B8D9C8D03
:1049B00020E030E04AEF54E40E941F02DC01CB010A
:1049C0008D8B9E8BAF8BB88F6D897E898F89988DEB
:1049D00020E030E040E85FE30E94790388232CF474
:1049E00081E090E09C8B8B8B3FC06D897E898F89A5
:1049F000988D20E03FEF4FE757E40E941903181607
:104A00004CF5698D7A8D8B8D9C8D20E030E040E2F5
:104A100051E40E941F02DC01CB01BC01CD010E94C8
:104A20004900DC01CB019C8B8B8B0FC088EC90E0A4
:104A30009A8B898B89899A890197F1F79A8B898B4F
:104A40008B899C8901979C8B8B8B8B899C89009788
:104A500069F714C06D897E898F89988D0E944900FD
:104A6000DC01CB019C8B8B8B8B899C89988B8F87EE
:104A70008F8598890197F1F7988B8F8780E00E9446
:104A8000C81E81E00E94C81E80E061E00E942E1EC8
:104A90008AE191E00E94961D81E060E00E942E1E56
:104AA00089E291E00E94961D80E090E0A6E1B4E4E6
:104AB0008B879C87AD87BE876B857C858D859E8522
:104AC00020E030E04AEF54E40E941F02DC01CB01F9
:104AD0008F839887A987BA876F81788589859A851A
:104AE00020E030E040E85FE30E94790388232CF463
:104AF00081E090E09E838D833FC06F8178858985BA
:104B00009A8520E03FEF4FE757E40E9419031816FB
:104B10004CF56B857C858D859E8520E030E040E2FC
:104B200051E40E941F02DC01CB01BC01CD010E94B7
:104B30004900DC01CB019E838D830FC088EC90E09F
:104B40009C838B838B819C810197F1F79C838B8362
:104B50008D819E8101979E838D838D819E8100979B
:104B600069F714C06F81788589859A850E9449000C
:104B7000DC01CB019E838D838D819E819A83898305
:104B800089819A810197F1F79A8389836C960FB690
:104B9000F894DEBF0FBECDBFCF91DF910895DF93B4
:104BA000CF9300D00F92CDB7DEB7198280E00E947C
:104BB000C81E81E00E94C81E80E060E00E942E1E98
:104BC0008AE391E00E94961D81E060E00E942E1E23
:104BD0008DE491E00E94961D0E94391F898389818E
:104BE0008F3F09F447C08981282F30E03B832A8317
:104BF0008A819B818233910501F12A813B81233394
:104C0000310534F48A819B818133910561F032C092
:104C10002A813B8123333105D1F08A819B81843302
:104C20009105F9F027C081E08093E50281E090E0F2
:104C30000E945A208093E3021DC082E08093E50227
:104C400082E090E00E945A208093E30213C083E048
:104C50008093E50283E090E00E945A208093E30273
:104C600009C084E08093E50284E090E00E945A202D
:104C70008093E3028091E302882309F4ADCF0F9083
:104C80000F900F90CF91DF910895DF93CF9300D0D5
:104C900000D00F92CDB7DEB781E060E00E942E1EFB
:104CA0001D821C821B821A820E94391F898389817E
:104CB0008F3FD1F389818033F8F089818A33E0F422
:104CC0008AE20E94741D8A819B819C01220F331FFE
:104CD000C901880F991F880F991F280F391F8981D3
:104CE000882F90E0820F931FC0979B838A838A81CD
:104CF0009B819D838C83D8CF89818D33A9F68C814C
:104D00009D810F900F900F900F900F90CF91DF919A
:104D10000895DF93CF93CDB7DEB7AF970FB6F89472
:104D2000DEBF0FBECDBF1FA61EA61DA61CA61BA6BE
:104D300080E00E94C81E81E00E94C81E80E060E002
:104D40000E942E1E8EE591E00E94961D0E9445262F
:104D50009FA78EA780E00E94C81E81E00E94C81E07
:104D600080E060E00E942E1E8EE691E00E94961D7B
:104D700081E06DE00E942E1E81E790E00E94961D6A
:104D80000E9445269DA78CA71BA61092E402D3C1C2
:104D90002CA53DA58EA59FA52817390709F094C01D
:104DA0008091E502882F90E02CA5622F0E94BF1F02
:104DB00080E00E94C81E81E00E94C81E80E060E082
:104DC0000E942E1E80E891E00E94961D81E060E026
:104DD0000E942E1E82E991E00E94961D1BA6109251
:104DE000AB0280E090E0AFE2B4E48FA398A7A9A75C
:104DF000BAA76FA178A589A59AA520E030E04AEF6F
:104E000054E40E941F02DC01CB018BA39CA3ADA341
:104E1000BEA36BA17CA18DA19EA120E030E040E863
:104E20005FE30E94790388232CF481E090E09AA349
:104E300089A33FC06BA17CA18DA19EA120E03FEF83
:104E40004FE757E40E94190318164CF56FA178A597
:104E500089A59AA520E030E040E251E40E941F02BB
:104E6000DC01CB01BC01CD010E944900DC01CB017A
:104E70009AA389A30FC088EC90E098A38F8F8F8DA1
:104E800098A10197F1F798A38F8F89A19AA1019713
:104E90009AA389A389A19AA1009769F750C16BA130
:104EA0007CA18DA19EA10E944900DC01CB019AA3A7
:104EB00089A389A19AA19E8F8D8F8D8D9E8D01973B
:104EC000F1F79E8F8D8F3BC18BA5823009F08CC08E
:104ED00080E00E94C81E81E00E94C81E80E060E061
:104EE0000E942E1E81EA91E00E94961D81E060E002
:104EF0000E942E1E81EB91E00E94961D80E090E0C2
:104F0000A6E1B4E4898F9A8FAB8FBC8F698D7A8DBF
:104F10008B8D9C8D20E030E04AEF54E40E941F020C
:104F2000DC01CB018D8B9E8BAF8BB88F6D897E8919
:104F30008F89988D20E030E040E85FE30E9479039C
:104F400088232CF481E090E09C8B8B8B3FC06D8993
:104F50007E898F89988D20E03FEF4FE757E40E94CC
:104F6000190318164CF5698D7A8D8B8D9C8D20E078
:104F700030E040E251E40E941F02DC01CB01BC01A1
:104F8000CD010E944900DC01CB019C8B8B8B0FC0B3
:104F900088EC90E09A8B898B89899A890197F1F73F
:104FA0009A8B898B8B899C8901979C8B8B8B8B89A6
:104FB0009C89009769F714C06D897E898F89988DC7
:104FC0000E944900DC01CB019C8B8B8B8B899C89D7
:104FD000988B8F878F8598890197F1F7988B8F87AA
:104FE0008BA58F5F8BA7A7C080E00E94C81E81E0C1
:104FF0000E94C81E80E060E00E942E1E8FEB91E0B0
:105000000E94961D80E090E0AFEAB3E48B879C8716
:10501000AD87BE876B857C858D859E8520E030E0E1
:105020004AEF54E40E941F02DC01CB018F83988772
:10503000A987BA876F81788589859A8520E030E0D5
:1050400040E85FE30E94790388232CF481E090E03C
:105050009E838D833FC06F81788589859A8520E006
:105060003FEF4FE757E40E94190318164CF56B8584
:105070007C858D859E8520E030E040E251E40E94F1
:105080001F02DC01CB01BC01CD010E944900DC0103
:10509000CB019E838D830FC088EC90E09C838B8333
:1050A0008B819C810197F1F79C838B838D819E81FD
:1050B00001979E838D838D819E81009769F714C02F
:1050C0006F81788589859A850E944900DC01CB0132
:1050D0009E838D838D819E819A83898389819A8124
:1050E0000197F1F79A83898380E060E00E942E1E89
:1050F0008EEC91E00E94961D81E06DE00E942E1ED4
:105100008DEE90E00E94961D8BA5882F90E0029670
:10511000AA2797FDA095BA2FBC01CD010E94BF1D03
:105120008FEE90E00E94961D0E9445269DA78CA7B9
:105130008BA58F5F8BA78BA5833008F429CEAF9604
:105140000FB6F894DEBF0FBECDBFCF91DF910895AB
:10515000DF93CF93CDB7DEB76D970FB6F894DEBF70
:105160000FBECDBF1D8E8DE40E940B0680E00E9415
:10517000C81E81E00E94C81E80E00E94C81E81E017
:105180000E94C81E80E060E00E942E1E8DED91E01E
:105190000E94961D81E060E00E942E1E89EE91E043
:1051A0000E94961D80E090E0A8ECB3E4898F9A8F6E
:1051B000AB8FBC8F698D7A8D8B8D9C8D20E030E01C
:1051C0004AEF54E40E941F02DC01CB018D8B9E8BC1
:1051D000AF8BB88F6D897E898F89988D20E030E004
:1051E00040E85FE30E94790388232CF481E090E09B
:1051F0009C8B8B8B3FC06D897E898F89988D20E039
:105200003FEF4FE757E40E94190318164CF5698DDC
:105210007A8D8B8D9C8D20E030E040E251E40E943D
:105220001F02DC01CB01BC01CD010E944900DC0161
:10523000CB019C8B8B8B0FC088EC90E09A8B898B79
:1052400089899A890197F1F79A8B898B8B899C8937
:1052500001979C8B8B8B8B899C89009769F714C075
:105260006D897E898F89988D0E944900DC01CB0170
:105270009C8B8B8B8B899C89988B8F878F8598894A
:105280000197F1F7988B8F8780E00E94C81E81E01C
:105290000E94C81E80E060E00E942E1E86EF91E012
:1052A0000E94961D81E060E00E942E1E87E092E041
:1052B0000E94961D80E090E0A8ECB3E48B879C8769
:1052C000AD87BE876B857C858D859E8520E030E02F
:1052D0004AEF54E40E941F02DC01CB018F839887C0
:1052E000A987BA876F81788589859A8520E030E023
:1052F00040E85FE30E94790388232CF481E090E08A
:105300009E838D833FC06F81788589859A8520E053
:105310003FEF4FE757E40E94190318164CF56B85D1
:105320007C858D859E8520E030E040E251E40E943E
:105330001F02DC01CB01BC01CD010E944900DC0150
:10534000CB019E838D830FC088EC90E09C838B8380
:105350008B819C810197F1F79C838B838D819E814A
:1053600001979E838D838D819E81009769F714C07C
:105370006F81788589859A850E944900DC01CB017F
:105380009E838D838D819E819A83898389819A8171
:105390000197F1F79A8389830E94391F8D8F8D8D34
:1053A0008F3F09F4E9CE8D8D813319F40E943C2A98
:1053B000E3CE8D8D823319F40E94862BDDCE8D8D48
:1053C000833319F40E947E2AD7CE8D8D843319F44D
:1053D0000E94C02AD1CE8D8D853319F40E94022BF4
:1053E000CBCE8D8D863319F40E94442BC5CE83E23B
:1053F0000E940B061092E4026D960FB6F894DEBF81
:105400000FBECDBFCF91DF910895DF93CF930F9261
:10541000CDB7DEB7198281E40E940B0680E00E94BE
:10542000C81E81E00E94C81E80E060E00E942E1E1F
:1054300089E192E00E94961D81E060E00E942E1EAC
:1054400087E292E00E94961D0E94391F898389811C
:105450008F3FD1F389818332B9F783E20E940B0633
:1054600080E00E94C81E81E00E94C81E1092E402E3
:105470000F90CF91DF910895DF93CF930F92CDB727
:10548000DEB7198284E50E940B0680E00E94C81EE8
:1054900081E00E94C81E80E060E00E942E1E87E32B
:1054A00092E00E94961D81E060E00E942E1E82E440
:1054B00092E00E94961D0E94391F898389818F3F47
:1054C000D1F38981813351F481E30E940B0680E09E
:1054D0000E94C81E81E00E94C81E0CC089818033D2
:1054E00051F780E30E940B0680E00E94C81E81E015
:1054F0000E94C81E0F90CF91DF910895DF93CF9344
:105500000F92CDB7DEB719828CE40E940B0680E0C3
:105510000E94C81E81E00E94C81E80E060E00E94D8
:105520002E1E8DE492E00E94961D81E060E00E94B4
:105530002E1E8BE592E00E94961D0E94391F8983E2
:1055400089818F3FD1F38981813351F481E30E94B6
:105550000B0680E00E94C81E81E00E94C81E0CC09D
:105560008981803351F780E30E940B0680E00E941E
:10557000C81E81E00E94C81E0F90CF91DF91089550
:10558000DF93CF930F92CDB7DEB7198283E40E94E9
:105590000B0680E00E94C81E81E00E94C81E80E0C9
:1055A00060E00E942E1E8DE492E00E94961D81E034
:1055B00060E00E942E1E8BE592E00E94961D0E94E4
:1055C000391F898389818F3FD1F38981813351F4D8
:1055D00081E30E940B0680E00E94C81E81E00E94C9
:1055E000C81E0CC08981803351F780E30E940B06EE
:1055F00080E00E94C81E81E00E94C81E0F90CF91DB
:10560000DF910895DF93CF930F92CDB7DEB7198264
:1056100082E40E940B0680E00E94C81E81E00E9486
:10562000C81E80E060E00E942E1E8DE492E00E9481
:10563000961D81E060E00E942E1E8BE592E00E94A4
:10564000961D0E94391F898389818F3FD1F38981FB
:10565000813351F481E30E940B0680E00E94C81E52
:1056600081E00E94C81E0CC08981803351F780E31D
:105670000E940B0680E00E94C81E81E00E94C81EA6
:105680000F90CF91DF910895DF93CF930F92CDB715
:10569000DEB719828BE40E940B0680E00E94C81ED0
:1056A00081E00E94C81E80E060E00E942E1E8DE412
:1056B00092E00E94961D81E060E00E942E1E8BE524
:1056C00092E00E94961D0E94391F898389818F3F35
:1056D000D1F38981813351F481E30E940B0680E08C
:1056E0000E94C81E81E00E94C81E0CC089818033C0
:1056F00051F780E30E940B0680E00E94C81E81E003
:105700000E94C81E0F90CF91DF910895DF93CF9331
:105710000F92CDB7DEB7198286E40E940B0680E0B7
:105720000E94C81E81E00E94C81E80E060E00E94C6
:105730002E1E89E692E00E94961D81E060E00E94A4
:105740002E1E85E792E00E94961D0E94391F8983D4
:1057500089818F3FD1F38981813351F481E30E94A4
:105760000B0680E00E94C81E81E00E94C81E0CC08B
:105770008981803351F780E30E940B0680E00E940C
:10578000C81E81E00E94C81E0F90CF91DF9108953E
:10579000DF93CF93CDB7DEB784EB90E00E94A919D9
:1057A000CF91DF910895DF93CF93CDB7DEB780E03F
:1057B00090E00E94A919CF91DF910895629FD001D6
:1057C000739FF001829FE00DF11D649FE00DF11DBC
:1057D000929FF00D839FF00D749FF00D659FF00D6B
:1057E0009927729FB00DE11DF91F639FB00DE11D58
:1057F000F91FBD01CF0111240895A1E21A2EAA1BA1
:10580000BB1BFD010DC0AA1FBB1FEE1FFF1FA21770
:10581000B307E407F50720F0A21BB30BE40BF50B6D
:10582000661F771F881F991F1A9469F760957095F6
:10583000809590959B01AC01BD01CF0108952F92F9
:105840003F924F925F926F927F928F929F92AF9210
:10585000BF92CF92DF92EF92FF920F931F93CF935D
:10586000DF93CDB7DEB7CA1BDB0B0FB6F894DEBFF4
:105870000FBECDBF09942A88398848885F846E841A
:105880007D848C849B84AA84B984C884DF80EE8064
:10589000FD800C811B81AA81B981CE0FD11D0FB66D
:1058A000F894DEBF0FBECDBFED010895F894FFCF91
:1058B000456E7465722050617373776F7264203A1D
:1058C000005B315D00446F6F72206973204F50653B
:1058D0006E65640057656C636F6D652E2E005365B1
:1058E0007373696F6E20457870697265212100318C
:1058F0002D4D616E75616C2020322D4175746F00E5
:10590000332D456469742050617373776F7264003E
:10591000596F752061726520746869656621210080
:10592000526573746172742053797374656D2E2E91
:105930000054727920616761696E2E2E005B005DF4
:1059400000204F73616D61202F2045627261616D8F
:105950002000456D626564646564205379737465E5
:105960006D2070726F6A656374002057656C636F99
:105970006D6520546F204D59002020536D61727465
:1059800020486F6D65203A2920002831294F736126
:105990006D612028322945627261616D00283329CA
:1059A0004B68616C656420283429416C69004E6540
:1059B000772050617373776F7264203A2000436FD1
:1059C0006E6669726D204E6577205061737320009A
:1059D000446F6E65205375636365737366756C6C95
:1059E000790020497320557064617465642E2E2EF1
:1059F0000050617373204E4F54205570646174657C
:105A0000004E6F204D6F72652054726965730050AF
:105A1000617373204E4F54204D61746368004E656E
:105A200077205061737320416761696E00283129C6
:105A3000545628322946414E0028332942656428AD
:105A400034294B6974002835294261746828362945
:105A50004C6976696E670043686F6F7365206F707D
:105A600074696F6E283E3E290020596F7572204878
:105A70006F6D6520697300536D6172742041757498
:105A80006F6D617469630028312954563A204F4E76
:105A9000200028302954563A204F46460028312904
:105AA0004C696768743A204F4E20002830294C69B1
:105AB0006768743A204F46460028312946616E3A9D
:105AC000204F4E200028302946616E3A204F46462E
:105AD00000000000000000000004050607000102AD
