:100000000C942A000C9436120C9469120C949C12D5
:100010000C9447000C9447000C94FE080C94470085
:100020000C9447000C9447000C94F70A0C94A80A0F
:100030000C94ED0C0C947F060C94A1060C94BC0659
:100040000C946A190C9447000C9447000C944700D8
:100050000C94470011241FBECFE5D8E0DEBFCDBF12
:1000600011E0A0E6B0E0E4EEFEE402C005900D92DF
:10007000AC36B107D9F711E0ACE6B1E001C01D9292
:10008000A43AB107E1F70E9468220C9470270C94FF
:100090000000EF92FF920F931F937B018C0120E0F1
:1000A00030E040E05FE40E94490388238CF0C801FF
:1000B000B70120E030E040E05FE40E94C1010E940F
:1000C000A9039B01AC01205030404040504806C07D
:1000D000C801B7010E94A9039B01AC01B901CA0183
:1000E0001F910F91FF90EF900895A0E0B0E0EBE733
:1000F000F0E00C943927DC012B01FA019C9192303D
:1001000008F439C1EB018881823008F433C194309E
:1001100069F4843009F02FC111969C91119789815F
:10012000981709F428C1A1E4B1E025C1843009F48D
:1001300021C18230A9F4923009F01DC19A01AD01AC
:1001400088E0EA010990AE01E90109929E0181501F
:10015000C1F7E201898111969C918923818308C1AD
:10016000923009F407C112962D903C901397EB0141
:100170008A819B811496AD90BD90CD90DC901797AD
:10018000EC80FD800E811F819101281B390BB90184
:1001900037FF04C066277727621B730B6032710537
:1001A0000CF061C0121613066CF537014801062EDB
:1001B00004C096948794779467940A94D2F721E0C8
:1001C00030E040E050E004C0220F331F441F551FB1
:1001D0006A95D2F721503040404050402E213F21B7
:1001E00040235123211531054105510521F021E01E
:1001F00030E040E050E079018A01E628F72808293C
:1002000019293CC0232BD1F1260E371E350146019A
:10021000062E04C096948794779467940A94D2F734
:1002200021E030E040E050E004C0220F331F441FC3
:10023000551F6A95D2F721503040404050402A2146
:100240003B214C215D21211531054105510521F04E
:1002500021E030E040E050E059016A01A628B728CB
:10026000C828D9280BC0821593052CF01C01AA249C
:10027000BB24650103C0EE24FF24870111969C91E5
:10028000D20111968C91981709F445C0992339F041
:10029000A80197012A193B094C095D0906C0A6016E
:1002A00095012E193F09400B510B57FD08C01182D3
:1002B0003382228224833583468357831DC081E0A5
:1002C00081833382228288279927DC01821B930B4A
:1002D000A40BB50B84839583A683B7830DC0220F2F
:1002E000331F441F551F24833583468357838281E0
:1002F000938101979383828324813581468157813D
:10030000DA01C9010197A109B1098F5F9F4FAF4F72
:10031000BF4328F30BC0918333822282EA0CFB1C7B
:100320000C1D1D1DE482F5820683178383E0808304
:10033000248135814681578157FF1AC0C901AA27F8
:1003400097FDA095BA2F81709070A070B0705695EF
:10035000479537952795822B932BA42BB52B848318
:100360009583A683B7838281938101969383828349
:10037000DF0101C0D201CD01CDB7DEB7E2E10C94BF
:100380005527A0E2B0E0E7ECF1E00C944527698343
:100390007A838B839C832D833E834F835887E9E048
:1003A000EE2EF12CEC0EFD1ECE010196B7010E943F
:1003B000D2048E010F5E1F4FCE010596B8010E9438
:1003C000D2048A8991E089278A8BC701B801AE01DE
:1003D000475E5F4F0E9475000E94FD03A096E6E015
:1003E0000C946127A0E2B0E0E8EFF1E00C9445271F
:1003F00069837A838B839C832D833E834F835887C5
:10040000F9E0EF2EF12CEC0EFD1ECE010196B701A6
:100410000E94D2048E010F5E1F4FCE010596B801D7
:100420000E94D204C701B801AE01475E5F4F0E942F
:1004300075000E94FD03A096E6E00C946127A0E2FF
:10044000B0E0E5E2F2E00C94392769837A838B838C
:100450009C832D833E834F835887CE010196BE0136
:10046000675F7F4F0E94D204CE010596BE016F5E8A
:100470007F4F0E94D2049985923088F0898982301A
:10048000C8F0943019F4823051F404C0843029F457
:10049000923081F481E491E0C6C0923049F420E0CA
:1004A0009A858A89981321E02A87CE010996BBC0D4
:1004B000823049F420E09A858A89981321E02A8BBA
:1004C000CE014196B0C02D843E844F8458886D88FB
:1004D0007E888F88988CEE24FF248701AA24BB2471
:1004E000650140E050E060E070E0E0E0F0E0C10174
:1004F00081709070892BE9F0E60CF71C081D191D1E
:100500009A01AB012A0D3B1D4C1D5D1D80E090E062
:10051000A0E0B0E0E614F7040805190520F481E036
:1005200090E0A0E0B0E0BA01A901480F591F6A1F8E
:100530007B1FAA0CBB1CCC1CDD1C97FE08C081E0F5
:1005400090E0A0E0B0E0A82AB92ACA2ADB2A3196B6
:10055000E032F10549F0660C771C881C991C569412
:10056000479437942794C3CFFA85EA892B893C892D
:100570008B859C85280F391F2E5F3F4F17C0CA01FE
:1005800081709070892B61F016950795F794E79428
:1005900080E090E0A0E0B0E8E82AF92A0A2B1B2BC3
:1005A00076956795579547952F5F3F4F77FDE7CF36
:1005B0000CC0440F551F661F771F17FD4160EE0CDE
:1005C000FF1C001F111F21503040403090E05907A0
:1005D00090E0690790E4790760F32B8F3C8FDB0193
:1005E000CA018F779070A070B07080349105A1051A
:1005F000B10561F447FD0AC0E114F10401051105DC
:1006000029F0405C5F4F6F4F7F4F40781A8EFE1786
:1006100011F081E08A8F4D8F5E8F6F8F78A383E01A
:10062000898FCE0149960E94FD03A096E2E10C94C9
:100630005527A8E1B0E0EFE1F3E00C94452769838A
:100640007A838B839C832D833E834F83588789E0F5
:10065000E82EF12CEC0EFD1ECE010196B7010E9492
:10066000D2048E010F5E1F4FCE010596B8010E9485
:10067000D2048985823040F08989823028F0C70110
:10068000B8010E944A0501C08FEF6896E6E00C941D
:100690006127A8E1B0E0EFE4F3E00C94452769831B
:1006A0007A838B839C832D833E834F83588789E095
:1006B000E82EF12CEC0EFD1ECE010196B7010E9432
:1006C000D2048E010F5E1F4FCE010596B8010E9425
:1006D000D2048985823040F08989823028F0C701B0
:1006E000B8010E944A0501C08FEF6896E6E00C94BD
:1006F0006127A8E1B0E0EFE7F3E00C9445276983B8
:100700007A838B839C832D833E834F83588789E034
:10071000E82EF12CEC0EFD1ECE010196B7010E94D1
:10072000D2048E010F5E1F4FCE010596B8010E94C4
:10073000D2048985823040F08989823028F0C7014F
:10074000B8010E944A0501C081E06896E6E00C9479
:100750006127ACE0B0E0EFEAF3E00C94492769834D
:100760007A838B839C83CE010196BE016B5F7F4FA2
:100770000E94D2048D81823061F1823050F1843048
:1007800021F48E81882351F12EC02F81388537FDC9
:1007900020C06E812F3131051CF06623F9F023C093
:1007A0008EE190E0821B930B29853A854B855C8511
:1007B00004C056954795379527958A95D2F76623B5
:1007C000B1F050954095309521953F4F4F4F5F4F79
:1007D0000EC020E030E040E050E009C02FEF3FEFD6
:1007E0004FEF5FE704C020E030E040E050E8B9019F
:1007F000CA012C96E2E00C946527DF92EF92FF92FB
:100800000F931F93FC01E480F58006811781D1804E
:100810008081823048F480E090E0A0E1B0E0E82AF6
:10082000F92A0A2B1B2BA5C0843009F49FC0823003
:1008300021F4EE24FF24870105C0E114F104010531
:10084000110519F4E0E0F0E096C0628173819FEF3A
:10085000623879070CF05BC022E83FEF261B370BAC
:100860002A3131052CF020E030E040E050E02AC091
:10087000B801A701022E04C0769567955795479554
:100880000A94D2F781E090E0A0E0B0E004C0880FC5
:10089000991FAA1FBB1F2A95D2F70197A109B10979
:1008A0008E219F21A023B1230097A105B10521F03E
:1008B00081E090E0A0E0B0E09A01AB01282B392B59
:1008C0004A2B5B2BDA01C9018F779070A070B07052
:1008D00080349105A105B10539F427FF09C0205CDA
:1008E0003F4F4F4F5F4F04C0215C3F4F4F4F5F4F13
:1008F000E0E0F0E02030A0E03A07A0E04A07A0E402
:100900005A0710F0E1E0F0E079018A0127C0603871
:10091000710564F5FB01E158FF4FD801C7018F77DE
:100920009070A070B07080349105A105B10539F4C4
:10093000E7FE0DC080E490E0A0E0B0E004C08FE3EB
:1009400090E0A0E0B0E0E80EF91E0A1F1B1F17FFA1
:1009500005C016950795F794E794319687E01695AC
:100960000795F794E7948A95D1F705C0EE24FF2404
:100970008701EFEFF0E06E2F679566276795902F60
:100980009F77D794DD24D7948E2F8695492F462BB9
:10099000582F5D29B701CA011F910F91FF90EF9069
:1009A000DF900895FC01DB01408151812281622F9B
:1009B0006F7770E0221F2227221F9381892F880FD3
:1009C000822B282F30E0991F9927991F11969C930D
:1009D000119721153105A9F54115510561057105DD
:1009E00011F482E037C082E89FEF13969C938E93B8
:1009F00012979A01AB0167E0220F331F441F551F66
:100A00006A95D1F783E08C930DC0220F331F441FEA
:100A1000551F12968D919C911397019713969C9355
:100A20008E931297203080E0380780E0480780E4FA
:100A3000580758F314962D933D934D935C93179755
:100A400008952F3F310579F4411551056105710570
:100A500019F484E08C93089564FF03C081E08C93C3
:100A600012C01C9210C02F57304013963C932E9307
:100A7000129783E08C9387E0440F551F661F771F02
:100A80008A95D1F7706414964D935D936D937C9322
:100A9000179708951F93DC01FB019C91923008F495
:100AA00047C08081823008F443C0943051F41196DD
:100AB0001C91843099F58181682F70E0611B710968
:100AC0003FC0843021F0923031F48230B9F181811D
:100AD000882389F12DC011961C9111978230F1F075
:100AE00081811817D9F412962D913C911397828128
:100AF00093818217930794F028173907BCF0149656
:100B00008D919D910D90BC91A02D248135814681C0
:100B10005781281739074A075B0718F4112341F05A
:100B20000AC082179307A407B50740F4112319F0F0
:100B300061E070E005C06FEF7FEF02C060E070E041
:100B4000CB011F910895DF93CF9300D0CDB7DEB7CF
:100B5000A0E4B0E0E0E4F0E080818F778C931A822B
:100B6000198283E390E09A838983E9E2F0E0898146
:100B70008083E0E4F0E089819A81892F992780833E
:100B8000A0E4B0E0E0E4F0E0808180688C93A0E431
:100B9000B0E0E0E4F0E080818F7B8C93A0E4B0E0F3
:100BA000E0E4F0E080818F7E8C93A0E4B0E0E0E4AC
:100BB000F0E080818F7D8C93A0E4B0E0E0E4F0E091
:100BC0008081877F8C93A0E4B0E0E0E4F0E0808156
:100BD00082608C93A0E4B0E0E0E4F0E08081846087
:100BE0008C93AAE2B0E0EAE2F0E080818B7F8C9304
:100BF000AAE2B0E0EAE2F0E0808188608C93AAE2A9
:100C0000B0E0EAE2F0E0808180618C930F900F9079
:100C1000CF91DF910895DF93CF930F92CDB7DEB7D9
:100C20008983EBE2F0E08081882F90E08072907001
:100C30000097B9F3ECE2F0E089818083ABE2B0E0A9
:100C4000EBE2F0E0808180648C930F90CF91DF9194
:100C50000895DF93CF9300D0CDB7DEB79A83898311
:100C6000EBE2F0E080818823DCF7ECE2F0E08081C9
:100C7000E981FA8180830F900F90CF91DF910895E1
:100C8000DF93CF9300D00F92CDB7DEB789837B83FC
:100C90006A83AAE2B0E0EAE2F0E0808180628C93AD
:100CA000AAE2B0E0EAE2F0E0808180648C9389817E
:100CB00080936E018A819B8190936D0180936C017A
:100CC0000F900F900F90CF91DF910895DF93CF9306
:100CD00000D0CDB7DEB79A838983AAE2B0E0EAE21A
:100CE000F0E0808180688C9389819A819093700173
:100CF00080936F010F900F90CF91DF9108951F9215
:100D00000F920FB60F9211248F93AF93BF93EF936F
:100D1000FF93DF93CF93CDB7DEB7E0916F01F091F2
:100D20007001ACE2B0E08C918083CF91DF91FF91B4
:100D3000EF91BF91AF918F910F900FBE0F901F90C9
:100D400018951F920F920FB60F9211248F93EF9365
:100D5000FF93DF93CF93CDB7DEB7ECE2F0E0809165
:100D60006E018083CF91DF91FF91EF918F910F9072
:100D70000FBE0F901F9018951F920F920FB60F92F3
:100D800011242F933F934F935F936F937F938F9390
:100D90009F93AF93BF93EF93FF93DF93CF93CDB721
:100DA000DEB7E0916C01F0916D010995CF91DF9173
:100DB000FF91EF91BF91AF919F918F917F916F9133
:100DC0005F914F913F912F910F900FBE0F901F9009
:100DD0001895DF93CF93CDB7DEB7AFE4B0E0EFE483
:100DE000F0E080818E7F8C93AFE4B0E0EFE4F0E040
:100DF000808182608C93AEE4B0E0EEE4F0E080812C
:100E000088608C93AEE4B0E0EEE4F0E08081806135
:100E10008C93AFE4B0E0EFE4F0E080818F7B8C93C3
:100E2000AFE4B0E0EFE4F0E0808180688C93AFE461
:100E3000B0E0EFE4F0E080818F7E8C93AFE4B0E02F
:100E4000EFE4F0E080818F7D8C93AEE4B0E0EEE4DF
:100E5000F0E08081887F8C93AEE4B0E0EEE4F0E0D7
:100E600080818E7F8C93AEE4B0E0EEE4F0E0808190
:100E700082608C93AEE4B0E0EEE4F0E080818B7FA2
:100E80008C93CF91DF910895DF93CF93CDB7DEB7E9
:100E9000AFE4B0E0EFE4F0E080818E7F8C93AFE4CC
:100EA000B0E0EFE4F0E080818D7F8C93AEE4B0E0C1
:100EB000EEE4F0E08081877F8C93AEE4B0E0EEE476
:100EC000F0E080818F7E8C93AEE4B0E0EEE4F0E061
:100ED0008081887F8C93AEE4B0E0EEE4F0E0808126
:100EE0008E7F8C93AEE4B0E0EEE4F0E0808182602F
:100EF0008C93AEE4B0E0EEE4F0E080818B7F8C93E5
:100F000081E00E942308A9E5B0E0E9E5F0E08081F6
:100F100080628C93CF91DF910895DF93CF9300D0BF
:100F2000CDB7DEB79A83898389819A8190937201C4
:100F3000809371010F900F90CF91DF910895DF930F
:100F4000CF9300D0CDB7DEB79A83898389819A8108
:100F500090937401809373010F900F90CF91DF9164
:100F60000895DF93CF9300D0CDB7DEB79A838983FE
:100F70000F900F90CF91DF910895DF93CF9300D022
:100F8000CDB7DEB79A838983EAE4F0E089819A815C
:100F90009183808389819A819093780180937701EE
:100FA0000F900F90CF91DF910895DF93CF9300D0F2
:100FB000CDB7DEB79A838983E8E4F0E089819A812E
:100FC0009183808389819A8190937A0180937901BA
:100FD0000F900F90CF91DF910895DF93CF9300D0C2
:100FE00000D0CDB7DEB79A8389837C836B838981F8
:100FF0009A810E94BD07E6E4F0E08B819C81918399
:1010000080830F900F900F900F90CF91DF910895F4
:10101000DF93CF9300D000D0CDB7DEB79A8389831A
:101020007C836B8389819A810E94D507E6E4F0E096
:101030008B819C81918380830F900F900F900F90F4
:10104000CF91DF910895DF93CF9300D00F92CDB76A
:10105000DEB789838981282F30E03B832A838A8108
:101060009B81009731F02A813B812130310549F085
:101070000FC0AEE4B0E0EEE4F0E080818F7B8C93B3
:1010800007C0AEE4B0E0EEE4F0E0808180648C93D1
:101090000F900F900F90CF91DF910895EF92FF92F4
:1010A0000F931F93DF93CF9300D000D0CDB7DEB75F
:1010B0009A8389837C836B83E8E5F0E08081882FC5
:1010C00090E0807290700097B9F3A8E5B0E0E8E591
:1010D000F0E0808180628C93E6E4F0E08081918191
:1010E00090937C0180937B01E8E5F0E08081882F7C
:1010F00090E0807290700097B9F3A8E5B0E0E8E561
:10110000F0E0808180628C93E6E4F0E08081918160
:1011100090937E0180937D0120917D0130917E012D
:1011200080917B0190917C01A901481B590BCA0158
:10113000909382018093810180E00E942308E8E57A
:10114000F0E08081882F90E0807290700097B9F372
:10115000A8E5B0E0E8E5F0E0808180628C93E6E409
:10116000F0E0808191819093800180937F012091B4
:101170007F013091800180917D0190917E01A901D4
:10118000481B590BCA01909384018093830181E02D
:101190000E9423088091810190918201EB81FC8162
:1011A000918380838091830190918401CC01A0E0A0
:1011B000B0E024E630E040E050E0BC01CD010E9408
:1011C000E4267B018C0180918101909182019C0138
:1011D00040E050E0C801B7010E941727DA01C901B9
:1011E000E981FA8180830F900F900F900F90CF913B
:1011F000DF911F910F91FF90EF9008951F920F9232
:101200000FB60F9211242F933F934F935F936F93D9
:101210007F938F939F93AF93BF93EF93FF93DF934E
:10122000CF93CDB7DEB7809185018F5F8093850125
:1012300080918501813049F4E6E4F0E0808191817C
:1012400090937C0180937B0141C080918501823025
:10125000E1F4E6E4F0E08081918190937E01809357
:101260007D0120917D0130917E0180917B019091E3
:101270007C01A901481B590BCA01909382018093FC
:10128000810180E00E94230821C080918501833084
:10129000E9F4E6E4F0E0808191819093800180930D
:1012A0007F0120917F013091800180917D0190919B
:1012B0007E01A901481B590BCA01909384018093B8
:1012C00083011092850181E00E942308CF91DF9174
:1012D000FF91EF91BF91AF919F918F917F916F910E
:1012E0005F914F913F912F910F900FBE0F901F90E4
:1012F0001895DF93CF93CDB7DEB7A3E5B0E0E3E574
:10130000F0E080818F7B8C93A3E5B0E0E3E5F0E033
:10131000808188608C93A9E5B0E0E9E5F0E0808108
:1013200082608C93A3E5B0E0E3E5F0E08081887F04
:101330008C93A3E5B0E0E3E5F0E080818E7F8C93B1
:10134000A3E5B0E0E3E5F0E0808182608C93A3E563
:10135000B0E0E3E5F0E080818B7F8C93CF91DF916B
:101360000895DF93CF9300D0CDB7DEB79A838983FA
:1013700089819A8190938701809386010F900F90C5
:10138000CF91DF910895DF93CF9300D0CDB7DEB733
:101390009A83898389819A819093890180938801B6
:1013A0000F900F90CF91DF910895DF93CF930F921D
:1013B000CDB7DEB789830F90CF91DF910895DF938A
:1013C000CF930F92CDB7DEB78983ECE5F0E089814A
:1013D00080838981882F90E090938D0180938C0188
:1013E0000F90CF91DF910895DF93CF9300D000D07D
:1013F00000D0CDB7DEB79A8389834B835C836D833E
:101400007E8388EC0E94DF0989819A810E94C3094A
:101410008B819C81AD81BE8180938E0190938F01E1
:10142000A0939001B093910126960FB6F894DEBF79
:101430000FBECDBFCF91DF910895DF93CF93CDB78E
:10144000DEB72D970FB6F894DEBF0FBECDBF6A870B
:101450007B878C879D87A9E5B0E0E9E5F0E0808196
:101460008D7F8C931E821F821886198688EC0E94BD
:10147000DF098A859B85AC85BD8528EE33E040E099
:1014800050E0BC01CD010E94E426DC01CB0128EC38
:1014900030E040E050E0BC01CD010E941727DA01A6
:1014A000C9018E839F83A887B9871A821B821C82F9
:1014B0001D821A821B821C821D8220C0E8E5F0E09A
:1014C00080818270898305C0E8E5F0E080818270C8
:1014D000898389818823C1F3A8E5B0E0E8E5F0E0DD
:1014E000808182608C938A819B81AC81BD810196D1
:1014F000A11DB11D8A839B83AC83BD832A813B815F
:101500004C815D818E819F81A885B9852817390717
:101510004A075B0798F2A9E5B0E0E9E5F0E08081D1
:1015200082608C932D960FB6F894DEBF0FBECDBFB0
:10153000CF91DF910895DF93CF930F92CDB7DEB7B0
:10154000898389810E94DF090F90CF91DF910895EF
:101550001F920F920FB60F9211242F933F934F9328
:101560005F936F937F938F939F93AF93BF93EF930B
:10157000FF93DF93CF93CDB7DEB780919201909127
:10158000930101969093930180939201809192012F
:10159000909193012FE083349207B1F480918601FA
:1015A00090918701009729F0E0918601F0918701E1
:1015B00009951092930110929201E2E5F0E080917A
:1015C0008A0190918B018083CF91DF91FF91EF9100
:1015D000BF91AF919F918F917F916F915F914F914B
:1015E0003F912F910F900FBE0F901F9018951F9253
:1015F0000F920FB60F9211242F933F934F935F9347
:101600006F937F938F939F93AF93BF93EF93FF93CA
:10161000DF93CF9300D000D0CDB7DEB719821A8206
:101620001B821C8280918E0190918F01A09190016C
:10163000B091910128EE33E040E050E0BC01CD01D3
:101640000E94E426DC01CB0128EC30E040E050E0D1
:10165000BC01CD010E941727DA01C90189839A8351
:10166000AB83BC83809194019091950101969093F6
:1016700095018093940180918E0190918F01A091AA
:101680009001B09191010097A105B105F9F4809105
:1016900094019091950123E188389207E9F58091B2
:1016A000880190918901009729F0E0918801F091DB
:1016B000890109951092950110929401ECE5F0E0F2
:1016C00080918C0190918D01808326C0809194013E
:1016D000909195019C0140E050E089819A81AB8115
:1016E000BC81281739074A075B07B1F4809188014C
:1016F00090918901009729F0E0918801F09189018A
:1017000009951092950110929401ECE5F0E080911A
:101710008C0190918D0180830F900F900F900F900E
:10172000CF91DF91FF91EF91BF91AF919F918F91F9
:101730007F916F915F914F913F912F910F900FBECD
:101740000F901F901895DF93CF93CDB7DEB781E050
:1017500065E041E00E94CF1281E066E040E00E9437
:10176000CF1281E067E041E00E94CF1281E064E0A7
:1017700040E00E94CF1281E064E041E00E945417F3
:10178000ADE2B0E0EDE2F0E0808180618C93ADE20B
:10179000B0E0EDE2F0E080818F7D8C93ADE2B0E0CF
:1017A000EDE2F0E08081877F8C93ADE2B0E0EDE286
:1017B000F0E080818B7F8C93ADE2B0E0EDE2F0E071
:1017C000808181608C93ADE2B0E0EDE2F0E0808159
:1017D0008D7F8C93AEE2B0E0EEE2F0E080818E7F10
:1017E0008C93ADE2B0E0EDE2F0E0808180648C9318
:1017F000CF91DF910895DF93CF93CDB7DEB781E02E
:1018000065E040E00E94CF1281E066E041E00E9486
:10181000CF1281E067E040E00E94CF1281E064E0F7
:1018200040E00E94CF1281E064E040E00E94681432
:10183000ADE2B0E0EDE2F0E080818F7E8C93ADE22E
:10184000B0E0EDE2F0E080818F7D8C93ADE2B0E01E
:10185000EDE2F0E08081877F8C93ADE2B0E0EDE2D5
:10186000F0E080818B7F8C93ADE2B0E0EDE2F0E0C0
:10187000808180648C93CF91DF910895DF93CF9323
:101880000F92CDB7DEB78983EFE2F0E089818083E4
:10189000EEE2F0E080818823DCF7AEE2B0E0EEE239
:1018A000F0E0808180688C93EFE2F0E080810F901F
:1018B000CF91DF910895DF93CF930F92CDB7DEB72D
:1018C0008983EFE2F0E089818083EEE2F0E08081BD
:1018D0008823DCF7AEE2B0E0EEE2F0E080818068E1
:1018E0008C930F90CF91DF910895DF93CF93CDB775
:1018F000DEB7EFE2F0E08081CF91DF910895DF93D2
:10190000CF9300D000D00F92CDB7DEB79B838A83F0
:101910007D836C83198227C0AFE2B0E08981282FD4
:1019200030E08A819B81FC01E20FF31F80818C9360
:10193000EEE2F0E080818823DCF7AEE2B0E0EEE298
:10194000F0E0808180688C938981282F30E08C8141
:101950009D81DC01A20FB31FEFE2F0E080818C9348
:1019600089818F5F89838981282F30E08A819B81DB
:10197000FC01E20FF31F8081882371F60F900F9016
:101980000F900F900F90CF91DF910895DF93CF9339
:101990000F92CDB7DEB78983ADE2B0E0EDE2F0E0C3
:1019A000808180688C93EFE2F0E0898180830F90E2
:1019B000CF91DF910895DF93CF9300D0CDB7DEB7FD
:1019C0009A83898389819A81909397018093960164
:1019D0000F900F90CF91DF9108951F920F920FB645
:1019E0000F9211242F933F934F935F936F937F93A5
:1019F0008F939F93AF93BF93EF93FF93DF93CF9317
:101A000000D00F92CDB7DEB7EFE2F0E080818B839C
:101A1000CE0103969A838983E0919601F091970114
:101A200089819A810995ADE2B0E0EDE2F0E0808134
:101A30008F778C930F900F900F90CF91DF91FF9144
:101A4000EF91BF91AF919F918F917F916F915F9136
:101A50004F913F912F910F900FBE0F901F901895AF
:101A6000DF93CF930F92CDB7DEB789830E946C10BE
:101A7000E0E2F0E082E08083A1E2B0E0E1E2F0E0C9
:101A800080818E7F8C93A1E2B0E0E1E2F0E0808182
:101A90008D7F8C938981882329F0E2E2F0E08981AF
:101AA000880F8083A6E5B0E0E6E5F0E08081846001
:101AB0008C930F90CF91DF910895DF93CF930F9286
:101AC000CDB7DEB71982A6E5B0E0E6E5F0E08081AB
:101AD00080628C93A6E5B0E0E6E5F0E08081806866
:101AE0008C93E6E5F0E080818823DCF7E1E2F0E02A
:101AF0008081882F90E0887F90708830910511F068
:101B000081E0898389810F90CF91DF910895DF93E0
:101B1000CF930F92CDB7DEB71982A6E5B0E0E6E528
:101B2000F0E0808180628C93A6E5B0E0E6E5F0E02D
:101B3000808180688C93E6E5F0E080818823DCF783
:101B4000E1E2F0E08081882F90E0887F9070803122
:101B5000910511F082E0898389810F90CF91DF9107
:101B60000895DF93CF9300D0CDB7DEB78A83198273
:101B7000E3E2F0E08A81880F8083A3E2B0E0E3E251
:101B8000F0E080818E7F8C93A6E5B0E0E6E5F0E0A2
:101B900080818F7D8C93A6E5B0E0E6E5F0E0808162
:101BA00080688C93E6E5F0E080818823DCF7E1E251
:101BB000F0E08081882F90E0887F907088319105D7
:101BC00011F083E0898389810F900F90CF91DF918D
:101BD0000895DF93CF9300D0CDB7DEB78A83198203
:101BE0000E947A10E3E2F0E08A81880F8083A3E20A
:101BF000B0E0E3E2F0E080818E7F8C93A6E5B0E078
:101C0000E6E5F0E080818F7D8C93A6E5B0E0E6E527
:101C1000F0E0808180688C93E6E5F0E080818823A5
:101C2000DCF7E1E2F0E08081882F90E0887F90701F
:101C30008032910511F084E0898389810F900F90A3
:101C4000CF91DF910895DF93CF9300D0CDB7DEB76A
:101C50008A831982E3E2F0E08A81880F8083A3E21D
:101C6000B0E0E3E2F0E0808181608C93A6E5B0E033
:101C7000E6E5F0E080818F7D8C93A6E5B0E0E6E5B7
:101C8000F0E0808180688C93E6E5F0E08081882335
:101C9000DCF7E1E2F0E08081882F90E0887F9070AF
:101CA0008034910511F085E0898389810F900F9030
:101CB000CF91DF910895DF93CF9300D0CDB7DEB7FA
:101CC0008A8319820E947A10E3E2F0E08A81880F09
:101CD0008083A3E2B0E0E3E2F0E0808181608C9356
:101CE000A6E5B0E0E6E5F0E080818F7D8C93A6E587
:101CF000B0E0E6E5F0E0808180688C93E6E5F0E016
:101D000080818823DCF7E1E2F0E08081882F90E099
:101D1000887F90708834910511F086E089838981ED
:101D20000F900F90CF91DF910895DF93CF9300D064
:101D3000CDB7DEB78A831982E3E2F0E08A8180833F
:101D4000A6E5B0E0E6E5F0E0808180688C93E6E50A
:101D5000F0E080818823DCF7E1E2F0E08081882FE9
:101D600090E0887F90708832910511F087E0898338
:101D700089810F900F90CF91DF910895DF93CF93DA
:101D800000D0CDB7DEB78A8319820E947A10E3E2D1
:101D9000F0E08A818083A6E5B0E0E6E5F0E08081AE
:101DA00080688C93E6E5F0E080818823DCF7E1E24F
:101DB000F0E08081882F90E0887F907080339105DB
:101DC00011F088E0898389810F900F90CF91DF9186
:101DD0000895DF93CF9300D00F92CDB7DEB79B83EA
:101DE0008A831982A6E5B0E0E6E5F0E080818068AC
:101DF0008C93E6E5F0E080818823DCF7E1E2F0E017
:101E00008081882F90E0887F90708035910511F057
:101E100089E08983E3E2F0E08081EA81FB818083CD
:101E200089810F900F900F90CF91DF910895DF93EC
:101E3000CF9300D00F92CDB7DEB79B838A831982F0
:101E40000E947A10A6E5B0E0E6E5F0E080818068C7
:101E50008C93E6E5F0E080818823DCF7E1E2F0E0B6
:101E60008081882F90E0887F90708835910511F0EF
:101E70008AE08983E3E2F0E08081EA81FB8180836C
:101E800089810F900F900F90CF91DF910895DF938C
:101E9000CF93CDB7DEB7A6E5B0E0E6E5F0E0808110
:101EA00080618C93A6E5B0E0E6E5F0E08081806893
:101EB0008C93CF91DF910895DF93CF930F92CDB79D
:101EC000DEB78983E2E2F0E08981880F80830E9497
:101ED0006C10A6E5B0E0E6E5F0E0808184608C93CC
:101EE0000F90CF91DF910895DF93CF930F92CDB7ED
:101EF000DEB71982A6E5B0E0E6E5F0E08081806813
:101F00008C93E6E5F0E080818823DCF7E1E2F0E005
:101F10008081882F90E0887F90708036910511F045
:101F20008BE0898389810F90CF91DF910895DF93B2
:101F3000CF930F92CDB7DEB71982A6E5B0E0E6E504
:101F4000F0E0808180688C93E6E5F0E08081882372
:101F5000DCF7E1E2F0E08081882F90E0887F9070EC
:101F6000883A910511F08CE0898389810F90CF9197
:101F7000DF910895DF93CF9300D00F92CDB7DEB7F6
:101F80009B838A831982A6E5B0E0E6E5F0E08081D4
:101F900080688C93E6E5F0E080818823DCF7E1E25D
:101FA000F0E08081882F90E0887F907080389105E4
:101FB00011F08DE08983E3E2F0E08081EA81FB812A
:101FC000808389810F900F900F90CF91DF910895BA
:101FD000DF93CF9300D00F92CDB7DEB79B838A8378
:101FE00019820E947A10A6E5B0E0E6E5F0E0808173
:101FF00080688C93E6E5F0E080818823DCF7E1E2FD
:10200000F0E08081882F90E0887F9070883891057B
:1020100011F08EE08983E3E2F0E08081EA81FB81C8
:10202000808389810F900F900F90CF91DF91089559
:10203000DF93CF9300D0CDB7DEB78A831982E3E276
:10204000F0E08A818083A6E5B0E0E6E5F0E08081FB
:1020500080688C93E6E5F0E080818823DCF7E1E29C
:10206000F0E08081882F90E0887F9070883B910518
:1020700011F08FE0898389810F900F90CF91DF91CC
:102080000895DF93CF9300D0CDB7DEB78A8319824E
:102090000E947A10E3E2F0E08A818083A6E5B0E056
:1020A000E6E5F0E0808180688C93E6E5F0E08081F1
:1020B0008823DCF7E1E2F0E08081882F90E0887FE0
:1020C0009070803C910511F080E1898389810F90A7
:1020D0000F90CF91DF910895DF93CF93CDB7DEB707
:1020E000A6E5B0E0E6E5F0E0808180648C93CF91D6
:1020F000DF910895DF93CF93CDB7DEB7A6E5B0E0CB
:10210000E6E5F0E080818F7B8C93CF91DF9108959D
:10211000DF93CF9300D00F92CDB7DEB7898389814B
:10212000282F30E03B832A838A819B81009769F0C6
:102130002A813B812130310579F4AFE5B0E0EFE54C
:10214000F0E0808180688C9307C0AFE5B0E0EFE5F8
:10215000F0E080818F778C930F900F900F90CF914C
:10216000DF910895DF93CF93CDB7DEB72A970FB6EF
:10217000F894DEBF0FBECDBF89836A838981282F83
:1021800030E03A87298789859A858130910509F45D
:102190006DC029853A852230310509F4C9C0898589
:1021A0009A85009709F0E9C0ABE5B0E0EBE5F0E017
:1021B000808180648C938A81282F30E038872F8338
:1021C0008F8198858130910521F12F8138852230CA
:1021D00031052CF48F819885009761F0CEC02F8156
:1021E00038852230310521F18F8198858330910522
:1021F00071F1C3C0A5E5B0E0E5E5F0E08081826063
:102200008C93A5E5B0E0E5E5F0E080818E7F8C93CE
:10221000B4C0A5E5B0E0E5E5F0E0808182608C9394
:10222000A5E5B0E0E5E5F0E0808181608C93A5C094
:10223000A5E5B0E0E5E5F0E080818D7F8C93A5E534
:10224000B0E0E5E5F0E080818E7F8C9396C0A5E557
:10225000B0E0E5E5F0E080818D7F8C93A5E5B0E00E
:10226000E5E5F0E0808181608C9387C0ABE5B0E06C
:10227000EBE5F0E0808180688C938A81282F30E044
:102280003E832D838D819E818130910521F12D81A9
:102290003E81223031052CF48D819E81009761F0C2
:1022A0006CC02D813E812230310521F18D819E81CE
:1022B0008330910571F161C0A5E5B0E0E5E5F0E09E
:1022C000808188608C93A5E5B0E0E5E5F0E0808151
:1022D0008B7F8C9352C0A5E5B0E0E5E5F0E080810E
:1022E00088608C93A5E5B0E0E5E5F0E0808184604E
:1022F0008C9343C0A5E5B0E0E5E5F0E08081877F01
:102300008C93A5E5B0E0E5E5F0E080818B7F8C93D0
:1023100034C0A5E5B0E0E5E5F0E08081877F8C93EF
:10232000A5E5B0E0E5E5F0E0808184608C9325C010
:10233000ABE5B0E0EBE5F0E0808180628C938A81D0
:10234000282F30E03C832B838B819C81009731F0D8
:102350002B813C812130310549F00FC0A4E5B0E06C
:10236000E4E5F0E080818F7B8C9307C0A4E5B0E0CA
:10237000E4E5F0E0808180648C932A960FB6F894AF
:10238000DEBF0FBECDBFCF91DF910895DF93CF9316
:1023900000D00F92CDB7DEB789838981282F30E036
:1023A0003B832A838A819B818130910589F02A8130
:1023B0003B8122303105A1F08A819B810097B9F4DD
:1023C000ABE5B0E0EBE5F0E080818F7B8C930FC054
:1023D000ABE5B0E0EBE5F0E080818F778C9307C050
:1023E000ABE5B0E0EBE5F0E080818F7D8C930F9062
:1023F0000F900F90CF91DF910895DF93CF9300D08E
:1024000000D00F92CDB7DEB789837B836A83898141
:10241000282F30E03D832C838C819D818130910574
:1024200081F02C813D812230310591F08C819D819C
:102430000097A1F48A819B819093990180939801E0
:102440000DC08A819B8190939B0180939A0106C065
:102450008A819B8190939D0180939C010F900F90A6
:102460000F900F900F90CF91DF9108951F920F92D0
:102470000FB60F9211242F933F934F935F936F9357
:102480007F938F939F93AF93BF93EF93FF93DF93CC
:10249000CF93CDB7DEB780919801909199010097C5
:1024A00029F0E0919801F09199010995CF91DF9180
:1024B000FF91EF91BF91AF919F918F917F916F911C
:1024C0005F914F913F912F910F900FBE0F901F90F2
:1024D00018951F920F920FB60F9211242F933F93CE
:1024E0004F935F936F937F938F939F93AF93BF931C
:1024F000EF93FF93DF93CF93CDB7DEB780919A012F
:1025000090919B01009729F0E0919A01F0919B0135
:102510000995CF91DF91FF91EF91BF91AF919F917D
:102520008F917F916F915F914F913F912F910F907C
:102530000FBE0F901F9018951F920F920FB60F921B
:1025400011242F933F934F935F936F937F938F93B8
:102550009F93AF93BF93EF93FF93DF93CF93CDB749
:10256000DEB780919C0190919D01009729F0E09148
:102570009C01F0919D010995CF91DF91FF91EF9121
:10258000BF91AF919F918F917F916F915F914F918B
:102590003F912F910F900FBE0F901F901895DF93D2
:1025A000CF93CDB7DEB729970FB6F894DEBF0FBE35
:1025B000CDBF89836A834B838981843008F0F6C05C
:1025C0008A81883008F0F2C08B81282F30E039876B
:1025D000288788859985009739F0288539852130A5
:1025E000310509F475C0E2C08981282F30E03F83AE
:1025F0002E838E819F818130910559F12E813F81FB
:10260000223031052CF48E819F81009769F0CEC075
:102610002E813F812230310589F18E819F81833067
:10262000910509F440C0C2C0AAE3B0E0EAE3F0E0DB
:102630008081482F8A81282F30E081E090E0022EAF
:1026400002C0880F991F0A94E2F7809584238C9327
:10265000ADC0A7E3B0E0E7E3F0E08081482F8A81D6
:10266000282F30E081E090E0022E02C0880F991FF1
:102670000A94E2F7809584238C9398C0A4E3B0E099
:10268000E4E3F0E08081482F8A81282F30E081E068
:1026900090E0022E02C0880F991F0A94E2F78095FD
:1026A00084238C9383C0A1E3B0E0E1E3F0E0808178
:1026B000482F8A81282F30E081E090E0022E02C06E
:1026C000880F991F0A94E2F7809584238C936EC03B
:1026D0008981282F30E03D832C838C819D8181303E
:1026E000910549F12C813D81223031052CF48C81FA
:1026F0009D81009761F05AC02C813D8122303105C7
:1027000071F18C819D8183309105E9F14FC0AAE37D
:10271000B0E0EAE3F0E08081482F8A81282F30E0A2
:1027200081E090E0022E02C0880F991F0A94E2F720
:10273000842B8C933BC0A7E3B0E0E7E3F0E080811B
:10274000482F8A81282F30E081E090E0022E02C0DD
:10275000880F991F0A94E2F7842B8C9327C0A4E377
:10276000B0E0E4E3F0E08081482F8A81282F30E058
:1027700081E090E0022E02C0880F991F0A94E2F7D0
:10278000842B8C9313C0A1E3B0E0E1E3F0E08081FF
:10279000482F8A81282F30E081E090E0022E02C08D
:1027A000880F991F0A94E2F7842B8C9329960FB611
:1027B000F894DEBF0FBECDBFCF91DF910895DF93B8
:1027C000CF93CDB7DEB728970FB6F894DEBF0FBE14
:1027D000CDBF89836A838981843008F070C08A8183
:1027E000282F30E038872F838F819885009731F02C
:1027F0002F8138852130310581F161C08981282FF1
:1028000030E03E832D838D819E8181309105C9F01A
:102810002D813E81223031052CF48D819E810097DF
:1028200061F04DC02D813E812230310571F08D81E6
:102830009E818330910569F042C0EAE3F0E01082A6
:102840003EC0E7E3F0E010823AC0E4E3F0E010823B
:1028500036C0E1E3F0E0108232C08981282F30E0F9
:102860003C832B838B819C8181309105D1F02B811E
:102870003C81223031052CF48B819C81009761F0E2
:102880001EC02B813C812230310581F08B819C81DF
:102890008330910581F013C0EAE3F0E08FEF80838D
:1028A0000EC0E7E3F0E08FEF808309C0E4E3F0E0DF
:1028B0008FEF808304C0E1E3F0E08FEF8083289600
:1028C0000FB6F894DEBF0FBECDBFCF91DF91089554
:1028D000DF93CF93CDB7DEB729970FB6F894DEBF5D
:1028E0000FBECDBF89836A834B838981843008F012
:1028F000F6C08A81883008F0F2C08B81282F30E042
:102900003987288788859985009739F02885398502
:102910002130310509F475C0E2C08981282F30E0EB
:102920003F832E838E819F818130910559F12E81C5
:102930003F81223031052CF48E819F81009769F010
:10294000CEC02E813F812230310589F18E819F8159
:102950008330910509F440C0C2C0ABE3B0E0EBE3C3
:10296000F0E08081482F8A81282F30E081E090E0DC
:10297000022E02C0880F991F0A94E2F780958423E3
:102980008C93ADC0A8E3B0E0E8E3F0E08081482F8D
:102990008A81282F30E081E090E0022E02C0880F6B
:1029A000991F0A94E2F7809584238C9398C0A5E33D
:1029B000B0E0E5E3F0E08081482F8A81282F30E005
:1029C00081E090E0022E02C0880F991F0A94E2F77E
:1029D000809584238C9383C0A2E3B0E0E2E3F0E02F
:1029E0008081482F8A81282F30E081E090E0022EFC
:1029F00002C0880F991F0A94E2F7809584238C9374
:102A00006EC08981282F30E03D832C838C819D818D
:102A10008130910549F12C813D81223031052CF422
:102A20008C819D81009761F05AC02C813D812230BC
:102A3000310571F18C819D8183309105E9F14FC0A1
:102A4000ABE3B0E0EBE3F0E08081482F8A81282FF0
:102A500030E081E090E0022E02C0880F991F0A94B6
:102A6000E2F7842B8C933BC0A8E3B0E0E8E3F0E00E
:102A70008081482F8A81282F30E081E090E0022E6B
:102A800002C0880F991F0A94E2F7842B8C9327C009
:102A9000A5E3B0E0E5E3F0E08081482F8A81282FAC
:102AA00030E081E090E0022E02C0880F991F0A9466
:102AB000E2F7842B8C9313C0A2E3B0E0E2E3F0E0F2
:102AC0008081482F8A81282F30E081E090E0022E1B
:102AD00002C0880F991F0A94E2F7842B8C932996E1
:102AE0000FB6F894DEBF0FBECDBFCF91DF91089532
:102AF000DF93CF9300D000D0CDB7DEB789836A8350
:102B00008981843090F58981282F30E03C832B83A4
:102B10008B819C8181309105D1F02B813C812230C9
:102B200031052CF48B819C81009761F01EC02B81B4
:102B30003C812230310581F08B819C81833091056D
:102B400081F013C0EBE3F0E08A8180830EC0E8E3FC
:102B5000F0E08A81808309C0E5E3F0E08A81808328
:102B600004C0E2E3F0E08A8180830F900F900F9021
:102B70000F90CF91DF910895DF93CF9300D000D0D5
:102B80000F92CDB7DEB78A836B838A81843008F0D9
:102B90006AC08B81883008F066C08A81282F30E0B7
:102BA0003D832C838C819D818130910539F12C816D
:102BB0003D81223031052CF48C819D81009761F09C
:102BC00052C02C813D812230310551F18C819D8193
:102BD00083309105B9F147C0E9E3F0E08081482FE7
:102BE0008B81282F30E081E090E0022E02C0880F18
:102BF000991F0A94E2F78423898335C0E6E3F0E065
:102C00008081482F8B81282F30E081E090E0022ED8
:102C100002C0880F991F0A94E2F78423898323C096
:102C2000E3E3F0E08081482F8B81282F30E081E0C2
:102C300090E0022E02C0880F991F0A94E2F78423C5
:102C4000898311C0E0E3F0E08081482F8B81282F39
:102C500030E081E090E0022E02C0880F991F0A94B4
:102C6000E2F78423898389810F900F900F900F9052
:102C70000F90CF91DF910895DF93CF9300D000D0D4
:102C8000CDB7DEB78A838A81843090F58A81282F78
:102C900030E03C832B838B819C8181309105D1F086
:102CA0002B813C81223031052CF48B819C81009753
:102CB00061F01EC02B813C812230310581F08B8177
:102CC0009C818330910581F013C0E9E3F0E08081BD
:102CD00089830EC0E6E3F0E08081898309C0E3E3E5
:102CE000F0E08081898304C0E0E3F0E080818983A3
:102CF00089810F900F900F900F90CF91DF910895E1
:102D0000DF93CF9300D000D0CDB7DEB789836A833D
:102D10008981843008F072C08A81883008F06EC0E2
:102D20008981282F30E03C832B838B819C818130EB
:102D3000910549F12B813C81223031052CF48B81A6
:102D40009C81009761F05AC02B813C812230310573
:102D500071F18B819C8183309105E9F14FC0ABE328
:102D6000B0E0EBE3F0E08081482F8A81282F30E04B
:102D700081E090E0022E02C0880F991F0A94E2F7CA
:102D800084278C933BC0A8E3B0E0E8E3F0E08081C7
:102D9000482F8A81282F30E081E090E0022E02C087
:102DA000880F991F0A94E2F784278C9327C0A5E324
:102DB000B0E0E5E3F0E08081482F8A81282F30E001
:102DC00081E090E0022E02C0880F991F0A94E2F77A
:102DD00084278C9313C0A2E3B0E0E2E3F0E08081AB
:102DE000482F8A81282F30E081E090E0022E02C037
:102DF000880F991F0A94E2F784278C930F900F9005
:102E00000F900F90CF91DF910895DF93CF9300D073
:102E10000F92CDB7DEB789838981843008F03EC038
:102E20008981282F30E03B832A838A819B818130EE
:102E30009105E9F02A813B81223031052CF48A8109
:102E40009B81009761F02AC02A813B8122303105A5
:102E5000B1F08A819B8183309105C9F01FC0ABE33B
:102E6000B0E0EBE3F0E0808180958C9317C0A8E39D
:102E7000B0E0E8E3F0E0808180958C930FC0A5E39B
:102E8000B0E0E5E3F0E0808180958C9307C0A2E399
:102E9000B0E0E2E3F0E0808180958C930F900F909A
:102EA0000F90CF91DF910895DF93CF9300D000D0A2
:102EB0000F92CDB7DEB789836A834B8389818430D3
:102EC000E0F48A818830C8F48B81282F30E03D837C
:102ED0002C838C819D81009759F02C813D8121307C
:102EE000310559F489816A8141E00E94681405C066
:102EF00089816A8140E00E9468140F900F900F90C2
:102F00000F900F90CF91DF910895DF93CF9300D072
:102F100000D0CDB7DEB789836A8389818430B8F465
:102F20008A81282F30E03C832B838B819C81009702
:102F300051F02B813C812130310549F4898161E0D8
:102F40000E94781504C0898160E00E9478150F9076
:102F50000F900F900F90CF91DF910895DF93CF9353
:102F6000CDB7DEB7A7E2B0E0E7E2F0E080818064B1
:102F70008C93A7E2B0E0E7E2F0E080818F778C935A
:102F8000A7E2B0E0E7E2F0E080818F7D8C93A6E2DB
:102F9000B0E0E6E2F0E0808180688C93A6E2B0E0E9
:102FA000E6E2F0E080818F7D8C93A6E2B0E0E6E27D
:102FB000F0E08081877F8C93A6E2B0E0E6E2F0E06B
:102FC0008081887F8C93A6E2B0E0E6E2F0E0808129
:102FD00081608C93A6E2B0E0E6E2F0E0808182605E
:102FE0008C93A6E2B0E0E6E2F0E0808184608C930E
:102FF000CF91DF910895DF93CF9300D000D0CDB76C
:10300000DEB78A83A7E2B0E0E7E2F0E08081807E6D
:103010008C938A81282F30E03C832B838B819C8189
:103020008330910509F445C02B813C812430310562
:103030007CF48B819C818130910549F12B813C810D
:10304000223031056CF58B819C810097C1F05DC009
:103050002B813C812530310509F43DC08B819C8159
:10306000853091057CF12B813C8126303105E1F1E1
:103070008B819C818730910509F43FC046C0A7E24F
:10308000B0E0E7E2F0E08081807E8C933EC0A7E272
:10309000B0E0E7E2F0E08081807E81608C9335C013
:1030A000A7E2B0E0E7E2F0E08081807E82608C936E
:1030B0002CC0A7E2B0E0E7E2F0E08081807E836090
:1030C0008C9323C0A7E2B0E0E7E2F0E08081807E4D
:1030D00084608C931AC0A7E2B0E0E7E2F0E0808160
:1030E000807E85608C9311C0A7E2B0E0E7E2F0E05B
:1030F0008081807E86608C9308C0A7E2B0E0E7E222
:10310000F0E08081807E87608C93A6E2B0E0E6E20A
:10311000F0E0808180648C93198205C0E6E2F0E0E3
:1031200080818071898389818823C1F3A6E2B0E020
:10313000E6E2F0E0808180618C93E4E2F0E080815F
:1031400091810F900F900F900F90CF91DF91089584
:10315000DF93CF93CDB7DEB727970FB6F894DEBFD6
:103160000FBECDBF89837B836A838091A2018823B0
:1031700021F08A819B81009719F41F821E829FC0D3
:103180001092A201A7E2B0E0E7E2F0E08081807E49
:103190008C938981282F30E03D832C838C819D8105
:1031A0008330910509F445C02C813D8124303105DF
:1031B0007CF48C819D818130910549F12C813D8188
:1031C000223031056CF58C819D810097C1F05DC086
:1031D0002C813D812530310509F43DC08C819D81D4
:1031E000853091057CF12C813D8126303105E1F15E
:1031F0008C819D818730910509F43FC046C0A7E2CC
:10320000B0E0E7E2F0E08081807E8C933EC0A7E2F0
:10321000B0E0E7E2F0E08081807E81608C9335C091
:10322000A7E2B0E0E7E2F0E08081807E82608C93EC
:103230002CC0A7E2B0E0E7E2F0E08081807E83600E
:103240008C9323C0A7E2B0E0E7E2F0E08081807ECB
:1032500084608C931AC0A7E2B0E0E7E2F0E08081DE
:10326000807E85608C9311C0A7E2B0E0E7E2F0E0D9
:103270008081807E86608C9308C0A7E2B0E0E7E2A0
:10328000F0E08081807E87608C938A819B8190931F
:103290009F0180939E01A6E2B0E0E6E2F0E080812B
:1032A00080648C93A6E2B0E0E6E2F0E08081886082
:1032B0008C932091A0013091A1013F832E838E81B8
:1032C0009F8127960FB6F894DEBF0FBECDBFCF917A
:1032D000DF9108951F920F920FB60F9211242F9332
:1032E0003F934F935F936F937F938F939F93AF938E
:1032F000BF93EF93FF93DF93CF93CDB7DEB7E4E2B5
:10330000F0E0808191819093A1018093A00181E000
:103310008093A201E0919E01F0919F010995A6E2A0
:10332000B0E0E6E2F0E08081877F8C93CF91DF917F
:10333000FF91EF91BF91AF919F918F917F916F918D
:103340005F914F913F912F910F900FBE0F901F9063
:103350001895DF93CF9300D000D000D0CDB7DEB763
:103360009E838D8383E065E041E00E94CF128D81D2
:103370009E81CC01A0E0B0E028EE33E040E050E0D8
:10338000BC01CD010E94E426DC01CB0184599144AB
:10339000AD4FBF4F24EB30E040E050E0BC01CD0129
:1033A0000E941727DA01C90189839A83AB83BC8302
:1033B00089819A816FE17EE40E94ED0726960FB61F
:1033C000F894DEBF0FBECDBFCF91DF910895DF939C
:1033D000CF9300D000D000D0CDB7DEB79E838D83D1
:1033E00083E064E041E00E94CF128D819E81CC0198
:1033F000A0E0B0E028EE33E040E050E0BC01CD01B9
:103400000E94E426DC01CB0184599144AD4FBF4FAB
:1034100024EB30E040E050E0BC01CD010E941727D2
:10342000DA01C90189839A83AB83BC8389819A813C
:103430006FE17EE40E94080826960FB6F894DEBF7E
:103440000FBECDBFCF91DF910895DF93CF9300D012
:10345000CDB7DEB789836A838981843040F48A815D
:10346000883028F489816A8141E00E94CF120F9050
:103470000F90CF91DF910895DF93CF930F92CDB747
:10348000DEB789838981843020F4898161E00E94DC
:10349000DF130F90CF91DF910895DF93CF9300D08A
:1034A00000D00F92CDB7DEB789836A834B838981C1
:1034B0008430E0F48A818830C8F48B81282F30E092
:1034C0003D832C838C819D81009759F02C813D8117
:1034D0002130310559F489816A8141E00E946814E4
:1034E00005C089816A8140E00E9468140F900F90A6
:1034F0000F900F900F90CF91DF910895DF93CF93AE
:1035000000D000D0CDB7DEB789836A83898184304B
:10351000B8F48A81282F30E03C832B838B819C81F7
:10352000009751F02B813C812130310549F489818C
:1035300061E00E94781504C0898160E00E947815DE
:103540000F900F900F900F90CF91DF910895DF9320
:10355000CF9300D0CDB7DEB789836A838981843069
:1035600038F48A81883020F489816A810E9480162B
:103570000F900F90CF91DF910895DF93CF930F922B
:10358000CDB7DEB789838981843018F489810E94A0
:1035900005170F90CF91DF9108950F931F93DF933D
:1035A000CF93CDB7DEB7C654D0400FB6F894DEBF88
:1035B0000FBECDBF82E061E00E94DF1383E062E0D6
:1035C00041E00E94CF1283E063E041E00E94CF120D
:1035D00083E064E041E00E94CF12FE01ED5BFF4F0B
:1035E00080E090E0ACE0B2E480839183A283B38377
:1035F0008E01015C1F4FFE01ED5BFF4F6081718109
:103600008281938120E030E04AEF54E40E941F025F
:10361000DC01CB01F80180839183A283B383FE0197
:10362000FF96608171818281938120E030E040E8E3
:103630005FE30E94790388232CF481E090E09EAF41
:103640008DAF46C0FE01FF966081718182819381BA
:1036500020E03FEF4FE757E40E941903181664F586
:10366000FE01ED5BFF4F608171818281938120E0DB
:1036700030E040E251E40E941F02DC01CB01BC01BA
:10368000CD010E944900DC01CB019EAF8DAF0FC080
:1036900088EC90E09CAF8BAF8BAD9CAD0197F1F7C0
:1036A0009CAF8BAF8DAD9EAD01979EAF8DAF8DADB5
:1036B0009EAD009769F716C0FE01FF96608171818B
:1036C000828193810E944900DC01CB019EAF8DAFC6
:1036D0008DAD9EAD9AAF89AF89AD9AAD0197F1F7E7
:1036E0009AAF89AF8CE30E94521D80E090E0A0E881
:1036F000BFE38DAB9EABAFABB8AF6DA97EA98FA971
:1037000098AD20E030E04AEF54E40E941F02DC0153
:10371000CB0189AB9AABABABBCAB69A97AA98BA93E
:103720009CA920E030E040E85FE30E947903882311
:103730002CF481E090E098AB8FA73FC069A97AA9EB
:103740008BA99CA920E03FEF4FE757E40E941903A3
:1037500018164CF56DA97EA98FA998AD20E030E030
:1037600040E251E40E941F02DC01CB01BC01CD010B
:103770000E944900DC01CB0198AB8FA70FC088ECF9
:1037800090E09EA78DA78DA59EA50197F1F79EA716
:103790008DA78FA598A9019798AB8FA78FA598A9FA
:1037A000009769F714C069A97AA98BA99CA90E94FE
:1037B0004900DC01CB0198AB8FA78FA598A99CA7E6
:1037C0008BA78BA59CA50197F1F79CA78BA78CE0F5
:1037D0000E94521D80E090E0A0E8BFE38FA398A76D
:1037E000A9A7BAA76FA178A589A59AA520E030E07E
:1037F0004AEF54E40E941F02DC01CB018BA39CA37F
:10380000ADA3BEA36BA17CA18DA19EA120E030E061
:1038100040E85FE30E94790388232CF481E090E084
:103820009AA389A33FC06BA17CA18DA19EA120E09A
:103830003FEF4FE757E40E94190318164CF56FA1AC
:1038400078A589A59AA520E030E040E251E40E94E5
:103850001F02DC01CB01BC01CD010E944900DC014B
:10386000CB019AA389A30FC088EC90E098A38F8F17
:103870008F8D98A10197F1F798A38F8F89A19AA1B5
:1038800001979AA389A389A19AA1009769F714C007
:103890006BA17CA18DA19EA10E944900DC01CB01FE
:1038A0009AA389A389A19AA19E8F8D8F8D8D9E8DBC
:1038B0000197F1F79E8F8D8F81E00E94521D80E06D
:1038C00090E0A0E0B0E4898F9A8FAB8FBC8F698DB8
:1038D0007A8D8B8D9C8D20E030E04AEF54E40E947D
:1038E0001F02DC01CB018D8B9E8BAF8BB88F6D8956
:1038F0007E898F89988D20E030E040E85FE30E9468
:10390000790388232CF481E090E09C8B8B8B3FC063
:103910006D897E898F89988D20E03FEF4FE757E4CE
:103920000E94190318164CF5698D7A8D8B8D9C8D2C
:1039300020E030E040E251E40E941F02DC01CB01B4
:10394000BC01CD010E944900DC01CB019C8B8B8B1B
:103950000FC088EC90E09A8B898B89899A890197AE
:10396000F1F79A8B898B8B899C8901979C8B8B8B28
:103970008B899C89009769F714C06D897E898F892E
:10398000988D0E944900DC01CB019C8B8B8B8B892D
:103990009C89988B8F878F8598890197F1F7988BF1
:1039A0008F8786E00E94521D80E090E0A0E8BFE390
:1039B0008B879C87AD87BE876B857C858D859E8533
:1039C00020E030E04AEF54E40E941F02DC01CB010A
:1039D0008F839887A987BA876F81788589859A852B
:1039E00020E030E040E85FE30E94790388232CF474
:1039F00081E090E09E838D833FC06F8178858985CB
:103A00009A8520E03FEF4FE757E40E94190318160C
:103A10004CF56B857C858D859E8520E030E040E20D
:103A200051E40E941F02DC01CB01BC01CD010E94C8
:103A30004900DC01CB019E838D830FC088EC90E0B0
:103A40009C838B838B819C810197F1F79C838B8373
:103A50008D819E8101979E838D838D819E810097AC
:103A600069F714C06F81788589859A850E9449001D
:103A7000DC01CB019E838D838D819E819A83898316
:103A800089819A810197F1F79A838983CA5BDF4F15
:103A90000FB6F894DEBF0FBECDBFCF91DF911F915F
:103AA0000F910895DF93CF930F92CDB7DEB789833F
:103AB00083E062E040E00E94681483E063E040E05D
:103AC0000E94681482E069810E94781583E064E0B6
:103AD00041E00E94681483E064E040E00E946814C2
:103AE0000F90CF91DF910895DF93CF930F92CDB7D1
:103AF000DEB7898383E062E041E00E94681483E0DE
:103B000063E040E00E94681482E069810E947815B9
:103B100083E064E041E00E94681483E064E040E0F8
:103B20000E9468140F90CF91DF910895DF93CF9397
:103B300000D00F92CDB7DEB79B838A8319820EC067
:103B40008981282F30E08A819B81FC01E20FF31FDD
:103B500080810E94741D89818F5F89838981282FCC
:103B600030E08A819B81FC01E20FF31F8081882372
:103B700039F70F900F900F90CF91DF9108950F9329
:103B80001F93DF93CF93CDB7DEB76B970FB6F89443
:103B9000DEBF0FBECDBF688F798F8A8F9B8F1B8250
:103BA0002DC08B81082F10E0888D998DAA8DBB8D3B
:103BB0002AE030E040E050E0BC01CD010E94172730
:103BC000DC01CB01282FCE010496FC01E00FF11F90
:103BD0002083888D998DAA8DBB8D2AE030E040E04E
:103BE00050E0BC01CD010E941727DA01C901888F7E
:103BF000998FAA8FBB8F8B818F5F8B83888D998DD7
:103C0000AA8DBB8D0097A105B10559F68B81815016
:103C10008B838B81882F90E09A83898310C02981C0
:103C20003A81CE010496FC01E20FF31F8081805D92
:103C30000E94741D89819A8101979A838983898161
:103C40009A81992364F76B960FB6F894DEBF0FBE86
:103C5000CDBFCF91DF911F910F910895DF93CF9347
:103C600000D000D0CDB7DEB789836A8389818230E6
:103C7000D8F48A818031C0F48981282F30E03C83D8
:103C80002B838B819C81009731F02B813C812130EB
:103C9000310531F009C08A8180580E94521D04C04C
:103CA0008A8180540E94521D0F900F900F900F90A8
:103CB000CF91DF910895DF93CF9300D000D0CDB79F
:103CC000DEB78A837C836B838A810E94521D1982AE
:103CD0000EC08981282F30E08B819C81FC01E20F8E
:103CE000F31F80810E94741D89818F5F8983898180
:103CF000883078F30F900F900F900F90CF91DF9155
:103D00000895DF93CF9300D00F92CDB7DEB78983AC
:103D10006A834B838A816B810E942E1E89810E9457
:103D2000741D0F900F900F90CF91DF910895DF9346
:103D3000CF93CDB7DEB781E00E94521DCF91DF91C6
:103D40000895DF93CF93CDB7DEB787E00E94521D71
:103D5000CF91DF910895DF93CF93CDB7DEB785E0A4
:103D60000E94521DCF91DF910895DF93CF9300D031
:103D7000CDB7DEB789836A8389816A810E942E1E4E
:103D800080E20E94741D0F900F90CF91DF910895F3
:103D9000DF93CF9300D0CDB7DEB78A8319820AC0F4
:103DA0008A8169810E942E1E80E20E94741D898191
:103DB0008F5F89838981803198F30F900F90CF9125
:103DC000DF910895DF93CF93CDB7DEB780E064E055
:103DD00041E00E94CF1280E065E041E00E94CF12F6
:103DE00080E066E041E00E94CF1280E067E041E0C1
:103DF0000E94CF1280E060E040E00E94CF1280E09D
:103E000061E040E00E94CF1280E062E040E00E946A
:103E1000CF1280E063E040E00E94CF1280E060E0DB
:103E200041E00E94541780E061E041E00E94541795
:103E300080E062E041E00E94541780E063E041E0EE
:103E40000E94541780E064E041E00E94681480E022
:103E500065E041E00E94681480E066E041E00E9475
:103E6000681480E067E041E00E946814CF91DF9120
:103E70000895DF93CF9300D000D00F92CDB7DEB777
:103E80008FEF8A8319821D826DC08D81882F90E00B
:103E9000FC01E75BFE4F908180E0692F40E00E94CB
:103EA00068141C8249C08C81882F90E0FC01E35B80
:103EB000FE4F908180E0692F0E94BC158B838B811F
:103EC0008823B9F520C08C81482F50E08D81282FA0
:103ED00030E0CA01880F991F880F991F820F931F26
:103EE000FC01EF5AFE4F80818A838C81882F90E0FD
:103EF000FC01E35BFE4F908180E0692F0E94BC15BE
:103F00008B8381E089838B818823E9F28C81482F20
:103F100050E08D81282F30E0CA01880F991F880F4B
:103F2000991F820F931FFC01EF5AFE4F80818A83F5
:103F300007C08C818F5F8C838C81843008F4B3CF71
:103F40008D81882F90E0FC01E75BFE4F908180E03F
:103F5000692F41E00E9468148981813039F08D8198
:103F60008F5F8D838D81843008F48FCF8A810F908D
:103F70000F900F900F900F90CF91DF910895DF93E6
:103F8000CF93CDB7DEB762970FB6F894DEBF0FBE02
:103F9000CDBF998B888B6A8B88899989892F9927BE
:103FA00080658F870E945D0D8F850E94B10D888985
:103FB0000E94950E8A890E94950E0E94470F80E00C
:103FC00090E0A0E2B1E48B879C87AD87BE876B85CC
:103FD0007C858D859E8520E030E04AEF54E40E9488
:103FE0001F02DC01CB018F839887A987BA876F8175
:103FF000788589859A8520E030E040E85FE30E947B
:10400000790388232CF481E090E09E838D833FC068
:104010006F81788589859A8520E03FEF4FE757E4E7
:104020000E94190318164CF56B857C858D859E853D
:1040300020E030E040E251E40E941F02DC01CB01AD
:10404000BC01CD010E944900DC01CB019E838D8320
:104050000FC088EC90E09C838B838B819C810197BF
:10406000F1F79C838B838D819E8101979E838D8345
:104070008D819E81009769F714C06F81788589854D
:104080009A850E944900DC01CB019E838D838D813E
:104090009E819A83898389819A810197F1F79A8316
:1040A000898362960FB6F894DEBF0FBECDBFCF9165
:1040B000DF910895DF93CF93CDB7DEB762970FB648
:1040C000F894DEBF0FBECDBF9A8B898B89899A8900
:1040D000892F992780658F870E945D0D8F850E94AB
:1040E000B10D89890E94950E0E94870D8F850E94CF
:1040F000230ECE0140960E94170F0E94470F80E0CA
:1041000090E0A0E2B1E48B879C87AD87BE876B858A
:104110007C858D859E8520E030E04AEF54E40E9446
:104120001F02DC01CB018F839887A987BA876F8133
:10413000788589859A8520E030E040E85FE30E9439
:10414000790388232CF481E090E09E838D833FC027
:104150006F81788589859A8520E03FEF4FE757E4A6
:104160000E94190318164CF56B857C858D859E85FC
:1041700020E030E040E251E40E941F02DC01CB016C
:10418000BC01CD010E944900DC01CB019E838D83DF
:104190000FC088EC90E09C838B838B819C8101977E
:1041A000F1F79C838B838D819E8101979E838D8304
:1041B0008D819E81009769F714C06F81788589850C
:1041C0009A850E944900DC01CB019E838D838D81FD
:1041D0009E819A83898389819A810197F1F79A83D5
:1041E0008983888962960FB6F894DEBF0FBECDBF73
:1041F000CF91DF910895DF93CF9300D00F92CDB789
:10420000DEB789836A834B838981843068F48A812D
:10421000883050F489816A8140E00E94CF12898100
:104220006A814B810E9454170F900F900F90CF918D
:10423000DF910895DF93CF9300D0CDB7DEB78983A8
:104240006A838981843040F4898160E00E94DF13B1
:1042500089816A810E9485170F900F90CF91DF911D
:104260000895DF93CF9300D00F92CDB7DEB78A8346
:104270006B838A81843040F48B81883028F48A8172
:104280006B810E94BC15898389810F900F900F90DC
:10429000CF91DF910895DF93CF9300D0CDB7DEB7F4
:1042A0008A838A81843020F48A810E943C16898323
:1042B00089810F900F90CF91DF910895DF93CF9375
:1042C00000D00F92CDB7DEB789838981282F30E0E7
:1042D0003B832A838A819B8181309105D1F02A8199
:1042E0003B81223031052CF48A819B81009761F05B
:1042F0001EC02A813B812230310581F08A819B8159
:104300008330910581F013C080E061E00E94DF13EB
:104310000EC081E061E00E94DF1309C082E061E02D
:104320000E94DF1304C083E061E00E94DF130F905E
:104330000F900F90CF91DF910895DF93CF93CDB77A
:10434000DEB729970FB6F894DEBF0FBECDBF8983C5
:104350006A834B838A81282F30E0398728878885B4
:104360009985009739F0288539852130310509F480
:1043700050C0A5C08981282F30E03F832E838E81D5
:104380009F818130910509F12E813F8122303105D5
:104390002CF48E819F81009761F091C02E813F8126
:1043A00022303105F1F08E819F818330910529F112
:1043B00086C08B81882F90E0FC01EF59FE4F9081E1
:1043C00080E0692F0E9478157AC08B81882F90E059
:1043D000FC01EF59FE4F908181E0692F0E94781512
:1043E0006EC08B81882F90E0FC01EF59FE4F9081C9
:1043F00082E0692F0E94781562C08B81882F90E03F
:10440000FC01EF59FE4F908183E0692F0E947815DF
:1044100056C08981282F30E03D832C838C819D817B
:104420008130910519F12C813D81223031052CF428
:104430008C819D81009761F042C02C813D812230AA
:10444000310511F18C819D818330910559F137C07F
:104450008B81882F90E0FC01EF59FE4F8081982FCF
:10446000909580E0692F0E94781529C08B81882F54
:1044700090E0FC01EF59FE4F8081982F909581E0EC
:10448000692F0E9478151BC08B81882F90E0FC015A
:10449000EF59FE4F8081982F909582E0692F0E94FE
:1044A00078150DC08B81882F90E0FC01EF59FE4FED
:1044B0008081982F909583E0692F0E947815299626
:1044C0000FB6F894DEBF0FBECDBFCF91DF91089538
:1044D000DF93CF93CDB7DEB7E2970FB6F894DEBF88
:1044E0000FBECDBF0E94E9060E94A3050E94CD1A0F
:1044F0000E94AE1780E060E041E00E94CF1281E0B0
:1045000060E041E00E94CF1281E063E041E00E9460
:10451000CF1281E064E041E00E94CF1281E065E0CB
:1045200041E00E94CF1281E066E041E00E94CF129C
:1045300081E067E041E00E94CF1283E066E041E065
:104540000E94CF1283E066E040E00E9468141DA63E
:104550001EA61FA618AA19AA1AAA1CA61BA61AA646
:1045600019A618A61FA21EA21DA21CA21BA21AA257
:1045700019A218A21F8E82E390E09E8F8D8F0E9459
:10458000222588E70E940B06CE018D960E942906FF
:104590008DA58A3509F032C280E00E94C81E81E0F4
:1045A0000E94C81E80E060E00E942E1E80E690E01F
:1045B0000E94961D81E060E00E942E1E8EE690E033
:1045C0000E94961DCE01C0960E94290688A98134BA
:1045D00009F0ECC080E00E94C81E81E00E94C81E65
:1045E00080E060E00E942E1E8DE790E00E94961D04
:1045F00080E090E0A8E4B4E4898F9A8FAB8FBC8F01
:10460000698D7A8D8B8D9C8D20E030E04AEF54E4EB
:104610000E941F02DC01CB018D8B9E8BAF8BB88F6C
:104620006D897E898F89988D20E030E040E85FE3D6
:104630000E94790388232CF481E090E09C8B8B8B83
:104640003FC06D897E898F89988D20E03FEF4FE7CD
:1046500057E40E94190318164CF5698D7A8D8B8DDD
:104660009C8D20E030E040E251E40E941F02DC011A
:10467000CB01BC01CD010E944900DC01CB019C8B28
:104680008B8B0FC088EC90E09A8B898B89899A89F3
:104690000197F1F79A8B898B8B899C8901979C8B69
:1046A0008B8B8B899C89009769F714C06D897E89F3
:1046B0008F89988D0E944900DC01CB019C8B8B8BEC
:1046C0008B899C89988B8F878F8598890197F1F7C3
:1046D000988B8F8780E00E94C81E81E00E94C81ED0
:1046E00080E068E00E942E1E8FE20E94741D81E02F
:1046F00068E00E942E1E8FE20E94741D81E00E94DD
:1047000088108091A3018332C9F418AA1092A301E2
:104710000E94EE250E9416260E943E260E946626D2
:104720000E94D0260E948E2680E00E94C81E81E052
:104730000E94C81E80E00E94881044CF80E00E9442
:10474000FB179CA78BA78BA59CA5CC01A0E0B0E094
:1047500028E833E140E050E0BC01CD010E94E426AE
:10476000DC01CB01072E7AE0B695A7959795879542
:104770007A95D1F7702D9EA38DA38DA19EA12AE0DD
:1047800030E0B9010E940327CB0198A38F8F8F8D52
:1047900098A18A31910528F00E947A260E94AD26C0
:1047A000B0CF0E948E260E94A226ABCF88A98D345E
:1047B00009F008CF80E00E94C81E81E00E94C81E58
:1047C00080E060E00E942E1E8EE890E00E94961D20
:1047D00080E090E0A8E4B4E48B879C87AD87BE8737
:1047E0006B857C858D859E8520E030E04AEF54E422
:1047F0000E941F02DC01CB018F839887A987BA87AB
:104800006F81788589859A8520E030E040E85FE314
:104810000E94790388232CF481E090E09E838D83AD
:104820003FC06F81788589859A8520E03FEF4FE70B
:1048300057E40E94190318164CF56B857C858D850D
:104840009E8520E030E040E251E40E941F02DC013E
:10485000CB01BC01CD010E944900DC01CB019E834C
:104860008D830FC088EC90E09C838B838B819C812F
:104870000197F1F79C838B838D819E8101979E83A5
:104880008D838D819E81009769F714C06F81788533
:1048900089859A850E944900DC01CB019E838D8326
:1048A0008D819E819A83898389819A810197F1F70D
:1048B0009A83898380E00E94C81E81E00E94C81EFE
:1048C00080E068E00E942E1E8FE20E94741D81E04D
:1048D00068E00E942E1E8FE20E94741DCE018E960B
:1048E0000E9429068EA5843581F4CE018F960E9400
:1048F00029068FA5813319F40E94B826EFCF8FA522
:10490000803361F70E94D026E9CF8EA58C3481F4E4
:10491000CE01C1960E94290689A9813319F40E940B
:10492000DA25DCCF89A98033C9F60E94EE25D6CFDF
:104930008EA5833481F4CE01C1960E94290689A9EF
:10494000813319F40E940226C9CF89A9803331F638
:104950000E941626C3CF8EA5823489F4CE01C1965B
:104960000E94290689A9813319F40E942A26B6CF0C
:1049700089A9803309F0B2CF0E943E26AFCF8EA521
:104980008B3489F4CE01C1960E94290689A981330E
:1049900019F40E945226A2CF89A9803309F09ECF34
:1049A0000E9466269BCF8EA58634A9F4CE01C296BE
:1049B0000E9429068AA9813329F40E947A260E943E
:1049C000AD268CCF8AA9803309F088CF0E948E262D
:1049D0000E94A22683CF8EA5833209F07FCF18AA2A
:1049E0001EA60E94EE250E9416260E943E260E94C8
:1049F00066260E94D0260E948E26E4CD8DA58E3498
:104A0000B1F480E00E94C81E81E00E94C81E80E0D0
:104A100060E00E942E1E8EE990E00E94961D81E0CB
:104A200060E00E942E1E8EEA90E00E94961D80E0BB
:104A300090E0E2960FB6F894DEBF0FBECDBFCF91E7
:104A4000DF910895DF93CF93CDB7DEB72E970FB6E2
:104A5000F894DEBF0FBECDBF80E060E00E942E1E46
:104A60008FEB90E00E94961D81E063E00E942E1E75
:104A70008EEC90E00E94961D80E090E0AFE2B4E4FE
:104A80008B879C87AD87BE876B857C858D859E8552
:104A900020E030E04AEF54E40E941F02DC01CB0129
:104AA0008F839887A987BA876F81788589859A854A
:104AB00020E030E040E85FE30E94790388232CF493
:104AC00081E090E09E838D833FC06F8178858985EA
:104AD0009A8520E03FEF4FE757E40E94190318162C
:104AE0004CF56B857C858D859E8520E030E040E22D
:104AF00051E40E941F02DC01CB01BC01CD010E94E8
:104B00004900DC01CB019E838D830FC088EC90E0CF
:104B10009C838B838B819C810197F1F79C838B8392
:104B20008D819E8101979E838D838D819E810097CB
:104B300069F714C06F81788589859A850E9449003C
:104B4000DC01CB019E838D838D819E819A83898335
:104B500089819A810197F1F79A83898380E00E9485
:104B6000C81E81E00E94C81E80E061E00E942E1EE7
:104B70008AED90E00E94961D81E060E00E942E1E6A
:104B800089EE90E00E94961D2E960FB6F894DEBF37
:104B90000FBECDBFCF91DF910895DF93CF930F92DA
:104BA000CDB7DEB7898389818093A3010F90CF9120
:104BB000DF910895DF93CF93CDB7DEB780E060E05B
:104BC0000E942E1E81E064E041E00E944D1A8AEFAF
:104BD00090E00E94961DCF91DF910895DF93CF93CF
:104BE000CDB7DEB780E060E00E942E1E81E064E079
:104BF00040E00E944D1A8FEF90E00E94961DCF91E9
:104C0000DF910895DF93CF93CDB7DEB780E064E006
:104C10000E942E1E81E065E041E00E944D1A85E071
:104C200091E00E94961DCF91DF910895DF93CF937D
:104C3000CDB7DEB780E064E00E942E1E81E065E023
:104C400040E00E944D1A8AE091E00E94961DCF91AB
:104C5000DF910895DF93CF93CDB7DEB781E060E0B9
:104C60000E942E1E81E066E041E00E944D1A80E124
:104C700091E00E94961DCF91DF910895DF93CF932D
:104C8000CDB7DEB781E060E00E942E1E81E066E0D5
:104C900040E00E944D1A85E191E00E94961DCF915F
:104CA000DF910895DF93CF93CDB7DEB781E064E065
:104CB0000E942E1E81E067E041E00E944D1A8BE1C8
:104CC00091E00E94961DCF91DF910895DF93CF93DD
:104CD000CDB7DEB781E064E00E942E1E81E067E080
:104CE00040E00E944D1A80E291E00E94961DCF9113
:104CF000DF910895DF93CF93CDB7DEB780E06AE010
:104D00000E942E1E81E060E041E00E94681486E26D
:104D100091E00E94961DCF91DF910895DF93CF938C
:104D2000CDB7DEB780E06AE00E942E1E81E060E031
:104D300040E00E9468148DE291E00E94961DCF91A0
:104D4000DF910895DF93CF93CDB7DEB784EB90E08A
:104D50000E94A919CF91DF910895DF93CF93CDB72A
:104D6000DEB780E090E00E94A919CF91DF9108950D
:104D7000DF93CF93CDB7DEB781E063E041E00E94DF
:104D8000681481E06AE00E942E1E84E391E00E9494
:104D9000961D81E06FE00E94B51ECF91DF910895CE
:104DA000DF93CF93CDB7DEB781E063E040E00E94B0
:104DB000681481E06AE00E942E1E8AE391E00E945E
:104DC000961DCF91DF910895629FD001739FF001EE
:104DD000829FE00DF11D649FE00DF11D929FF00D8B
:104DE000839FF00D749FF00D659FF00D9927729FC2
:104DF000B00DE11DF91F639FB00DE11DF91FBD014D
:104E0000CF0111240895AA1BBB1B51E107C0AA1FA3
:104E1000BB1FA617B70710F0A61BB70B881F991F5B
:104E20005A95A9F780959095BC01CD010895A1E20E
:104E30001A2EAA1BBB1BFD010DC0AA1FBB1FEE1F14
:104E4000FF1FA217B307E407F50720F0A21BB30B5F
:104E5000E40BF50B661F771F881F991F1A9469F7DB
:104E600060957095809590959B01AC01BD01CF0137
:104E700008952F923F924F925F926F927F928F92FE
:104E80009F92AF92BF92CF92DF92EF92FF920F93D9
:104E90001F93CF93DF93CDB7DEB7CA1BDB0B0FB6E3
:104EA000F894DEBF0FBECDBF09942A8839884888A0
:104EB0005F846E847D848C849B84AA84B984C88436
:104EC000DF80EE80FD800C811B81AA81B981CE0F2D
:104ED000D11D0FB6F894DEBF0FBECDBFED01089512
:044EE000F894FFCF74
:104EE40020202057656C6F6D6520546F20002020B2
:104EF400596F757220686F6D65203A2900204175DD
:104F0400746F6D61746963204D6F64652000204D7A
:104F1400616E75616C204D6F64652E2E2000596F93
:104F24007520617265207468696566212100526587
:104F340073746172742053797374656D2E2E004FEF
:104F440073616D61202F2045627261616D004F7540
:104F5400722050726F6A656374002057656C636FCA
:104F64006D6520546F204D59002020536D6172747B
:104F740020486F6D65203A292000312D4F4E0031B5
:104F84002D4F464600322D4F4E00322D4F464600DF
:104F9400332D4F4E00332D4F464600342D4F4E00D7
:104FA400342D4F46460046616E2D4F4E0046616ECD
:104FB4004F46460054562D4F4E0054562D4F4646EC
:104FC40000000000000000000004050607000102C4
:104FD400033738392F3435362A3132332D23303DD7
:0C4FE4002BC0F9A4B0999282F8809000D4
:00000001FF
